:100000000C94881B0C94C81B0C94C81B0C94C81B24
:100010000C94C81B0C94C81B0C94C81B0C94C81BD4
:100020000C94C81B0C94C81B0C94C81B0C94C81BC4
:100030000C94C81B0C94C81B0C94C81B0C94C81BB4
:100040000C94C81B0C942F9D0C94C81B0C94C81BBB
:100050000C94C81B0C94C81B0C94299C0C9450FA4B
:100060000C94C81B0C94914E0C94874E0C94C81B96
:100070000C94C81B0C94C81B0C94C81B0C94C81B74
:100080000C94C81B0C94C81B0C94C81B0C94C81B64
:100090000C94C81B0C94C81B0C94C81B0C94C81B54
:1000A0000C94C81B0C94C81B0C94C81B0C94C81B44
:1000B0000C94C81B0C94C81B0C94C81B0C94C81B34
:1000C0000C94C81B0C94C81B0C94C81B0C94C81B24
:1000D0000C94C81B0C94C81B0C94C81B0C94C81B14
:1000E0000C94C81B084AD73B3BCE016E84BCBFFDB5
:1000F000C12F3D6C74319ABD56833DDA3D00C77FF8
:1001000011BED9E4BB4C3E916BAAAABE0000008090
:100110003F05A84CCDB2D44EB93836A9020C50B91F
:10012000918688083CA6AAAA2ABE000000803F004B
:100130000D9440140D94F30C4E414E494E495459C0
:10014000494E46CDCCCC3D0AD7233C17B7D13877A2
:10015000CC2B329595E6241FB14F0A0000204100B8
:1001600000C84200401C4620BCBE4CCA1B0E5AAE02
:10017000C59D7400407A10F35A00A0724E18090011
:1001800010A5D4E80000E87648170000E40B5402FC
:100190000000CA9A3B000000E1F505000080969837
:1001A00000000040420F000000A086010000001087
:1001B0002700000000E803000000006400000000C9
:1001C000000A00000000000100000000002C76D8AA
:1001D00088DC674F0823DFC1DFAE59E1B1B796E590
:1001E000E3E453C63AE651997696E8E6C28426EBF4
:1001F000898C9B62ED407C6FFCEFBC9C9F40F2BA07
:10020000A56FA5F490055A2AF75C936B6CF9676D9E
:10021000C11BFCE0E40D47FEF520E6B500D0ED90F3
:100220002E0300943577050080841E080000204EC0
:100230000A000000C80C333333330F986E12831159
:1002400041EF8D2114893BE65516CFFEE6DB18D130
:10025000844B381BF77C1D901DA4BBE42420328402
:10026000725E228100C9F124ECA1E53D27434F4D88
:100270004D554E49434154494F4E004452595255F1
:100280004E004552524F525300494E464F0045438F
:10029000484F00554E4C4F41442046494C414D4536
:1002A0004E54004C4F41442046494C414D454E541C
:1002B0000046494C414D454E54204348414E474528
:1002C0000053544F505045442E20005072696E74B4
:1002D00065722073746F7070656420647565207436
:1002E0006F206572726F72732E2046697820746871
:1002F00065206572726F7220616E6420757365206F
:100300004D39393920746F20726573746172742E9F
:10031000202854656D70657261747572652069730B
:100320002072657365742E20536574206974206192
:10033000667465722072657374617274696E672980
:100340000A004E6F20436865636B73756D20776993
:100350007468206C696E65206E756D6265722C2004
:100360004C617374204C696E653A20004E6F2043D7
:100370006865636B73756D2077697468206C696E4E
:1003800065206E756D6265722C204C617374204C13
:10039000696E653A2000636865636B73756D206DE7
:1003A00069736D617463682C204C617374204C69AF
:1003B0006E653A20004C696E65204E756D626572FF
:1003C000206973206E6F74204C617374204C696EC9
:1003D00065204E756D6265722B312C204C617374F3
:1003E000204C696E653A20004D3131300053657202
:1003F00069616C20737461747573206D69736D61CC
:100400007463680A005344207265616420657272E7
:100410006F720A002121204B494C4C206361757397
:100420006564206279204B494C4C20627574746F6E
:100430006E2F70696E0A002121204B494C4C2063BD
:10044000617573656420627920746F6F206D7563C8
:100450006820696E6163746976652074696D6520D2
:100460002D2063757272656E7420636F6D6D616EA1
:10047000643A2000627573793A207061757365641F
:1004800020666F7220696E7075740A0062757379E8
:100490003A2070617573656420666F7220757365AC
:1004A000720A00627573793A2070726F63657373B4
:1004B000696E670A004D656469612052656D6F76EB
:1004C0006564004D6564696120496E736572746589
:1004D0006400506C656173652052657365740050EB
:1004E00052494E5445522048414C544544002553EE
:1004F0003A20255300706F7765726F6666004B492E
:100500004C4C45442E20005072696E746572206810
:10051000616C7465642E206B696C6C2829206361A2
:100520006C6C6564210A006563686F3A00457272FD
:100530006F723A0042696C696E656172204C657633
:10054000656C696E6720477269643A0A002F2F61F3
:100550006374696F6E3A0070726F6D70745F0062E1
:100560007574746F6E00486F74656E6420746F6F7D
:1005700020636F6C640A0050726573732062757437
:10058000746F6E20746F20726573756D650A004913
:100590006E736572742066696C616D656E7420613E
:1005A0006E6420707265737320627574746F6E0A66
:1005B0000052656865617420446F6E65005265681D
:1005C000656174696E672E2E2E00526568656174D0
:1005D000004865617465722054696D656F757400BB
:1005E000507265737320627574746F6E20746F201F
:1005F00068656174206E6F7A7A6C650A004E6F7A56
:100600007A6C65205061726B65640070617573650A
:1006100064005061757365004F46460A0046616488
:1006200065204865696768742000426564204C65F0
:1006300076656C696E6720004661696C656420743C
:100640006F20656E61626C6520426564204C657642
:10065000656C696E670A00496E76616C6964206D2D
:100660006573682E0A0050726F62696E6720506F62
:10067000696E740025532025692F2569002E0A0014
:100680002F0050726F62696E67206D65736820700D
:100690006F696E742000202844525952554E29002B
:1006A000473239204175746F20426564204C65766D
:1006B000656C696E67003F20284C2C522C462C42FA
:1006C00029206F7574206F6620626F756E64732EBB
:1006D0000A003F2856296572626F7365206C657643
:1006E000656C20696D706C61757369626C6520283A
:1006F000302D34292E0A00426164205A2076616C24
:1007000075650A004E6F2062696C696E65617220C2
:10071000677269640A00446576696174696F6E0086
:1007200025533A2025730046696E69736865642114
:100730000A003A207A3A2000206F662000476F694D
:100740006E6720746F3A20580043570A002064698E
:10075000723A0020616E676C653A0053746172747E
:10076000207261646975733A004D343820506F69A6
:100770006E740025533A2025642F256400506F7352
:100780006974696F6E696E67207468652070726F36
:1007900062652E2E2E0A003F4C656773206F66201F
:1007A0006D6F76656D656E7420696D706C617573C3
:1007B00069626C652028302D3135292E0A003F20D2
:1007C00028582C5929206F7574206F6620626F7528
:1007D0006E64732E0A0050726F6265206F7574200C
:1007E0006F6620626F756E6473003F53616D706C4D
:1007F000652073697A65206E6F7420706C61757303
:1008000069626C652028342D3530292E0A004D345C
:1008100038205A2D50726F62652052657065617480
:100820006162696C69747920546573740A003F28A9
:1008300056296572626F7365206C6576656C2069F8
:100840006D706C61757369626C652028302D342978
:100850002E0A005374616E64617264204465766987
:100860006174696F6E3A20002052616E67653A20AC
:1008700000204D61783A2000204D696E3A2000201A
:100880005369676D613A20004D65616E3A20002022
:10089000440020204D32303020530020284469731A
:1008A00061626C6564293A0046696C616D656E74BD
:1008B0002073657474696E67730020204D32303187
:1008C0002058004D617820416363656C65726174E6
:1008D000696F6E2028756E6974732F73322900203A
:1008E000204D3230332058004D61782066656564B4
:1008F00072617465732028756E6974732F73290093
:1009000020520020204D3230342050004163636576
:100910006C65726174696F6E2028756E6974732FCF
:100920007332292028503C7072696E742D616363A4
:10093000656C3E20523C726574726163742D616314
:1009400063656C3E20543C74726176656C2D616306
:1009500063656C3E2900204A00205400205300208B
:10096000204D323035204200416476616E6365640B
:100970002028423C6D696E5F7365676D656E745FBC
:1009800074696D655F75733E20533C6D696E5F667B
:10099000656564726174653E20543C6D696E5F7478
:1009A000726176656C5F66656564726174653E2030
:1009B0004A3C6A756E635F6465763E290020440098
:1009C00020490020204D333031205000486F74659D
:1009D0006E64205049440020440020490020204DEE
:1009E0003330342050004265642050494400203B9D
:1009F0000020550020204D363033204C0046696CD5
:100A0000616D656E74206C6F61642F756E6C6F61C3
:100A100064003B200020496E76616C696420657833
:100A20007472756465722000536C6565702E2E2E8D
:100A3000005A2050726F62652050617374204265C5
:100A4000640A005A2050726F6265205061737420EE
:100A500042656400205A3A200020593A200042653D
:100A60006420583A20004D65736820706F696E7479
:100A7000206F7574206F662072616E67650A004D85
:100A8000302053746F70004D312053746F700043E9
:100A90006C69636B20746F20526573756D652E2EC3
:100AA0002E004E6F204D6F76652E00456E642066D9
:100AB000696C65206C6973740A00426567696E2011
:100AC00066696C65206C6973740A004E6F206D65F1
:100AD0006469610A00526573756D696E67205344DD
:100AE00000286E6F2066696C652900437572726517
:100AF0006E742066696C653A2000534420707269F8
:100B00006E74696E67206279746520004E6F742080
:100B10005344207072696E74696E670A002E0A0071
:100B200044656C6574696F6E206661696C65642CE0
:100B30002046696C653A200046696C652064656CE6
:100B4000657465643A002569730025696D2025691F
:100B500073002569682025696D2025697300256962
:100B600064202569682025696D2025697300256941
:100B70007920256964202569682025696D2025690B
:100B800073005072696E742074696D653A2000704C
:100B900061757365006F6B006F6666008E02890277
:100BA00082027B026D0244454255473A004D313185
:100BB000322053687574646F776E004D3131332085
:100BC00053003344205072696E746572204F46465C
:100BD0002E002F2F004D31343520533C696E646553
:100BE000783E206F7574206F662072616E67652095
:100BF00028302D31290A003F4A206F7574206F6616
:100C00002072616E67652028302E303120746F208D
:100C1000302E33290A0020580020204D61783A20D8
:100C200000200020204D696E3A2000203B2000204B
:100C3000204D323131205300536F667420656E644D
:100C400073746F70730046523A0020466C6F773AA7
:100C500020004261627973746570205A0050726F8F
:100C60006265204F6666736574205A0050726F6229
:100C700065204F6666736574205A00646973006569
:100C80006E0043290A0061626C656420286D696EFC
:100C90002074656D702000436F6C642065787472F9
:100CA000756465732061726520004D3432312069AE
:100CB0006E636F727265637420706172616D6574CA
:100CC00065722075736167650A004D6573682070F1
:100CD0006F696E74206F7574206F662072616E6725
:100CE000650A004F666673657473204170706C69A5
:100CF0006564004572723A20546F6F2066617221FC
:100D000000546F6F206661722066726F6D2072658D
:100D1000666572656E636520706F696E740A004562
:100D20004550524F4D204F4B0A00290A0020746F46
:100D300020003F5A206F7574206F662072616E67C5
:100D400065202800290A0020746F20003F59206F79
:100D50007574206F662072616E676520282D0029EA
:100D60000A0020746F20003F58206F7574206F6652
:100D70002072616E676520282D002E0A0020283021
:100D80002D313029002076616C7565206F757420D7
:100D90006F662072616E676500416476616E63659F
:100DA000204B3D004D383400446F6E6520707269F1
:100DB0006E74696E672066696C650A004D3737008E
:100DC0004D333100496E76616C69642065787472C8
:100DD000756465720A0020204D3230362058004874
:100DE0006F6D65206F6666736574004361703A00CD
:100DF000434F4E4649475F4558504F5254004D456A
:100E000041545041434B00434F4F4C45525F544572
:100E10004D5045524154555245004348414D42457D
:100E2000525F54454D504552415455524500424140
:100E300042595354455050494E4700415243530084
:100E40004D4F54494F4E5F4D4F4445530054484514
:100E5000524D414C5F50524F54454354494F4E0000
:100E6000455854454E4445445F4D3230004C4F4E3A
:100E7000475F46494C454E414D45004155544F5200
:100E800045504F52545F53445F535441545553009F
:100E900053445F5752495445005245504541540010
:100EA0005344434152440050524F4D50545F5355A8
:100EB00050504F525400484F53545F414354494F90
:100EC0004E5F434F4D4D414E445300454D455247B3
:100ED000454E43595F50415253455200434153459B
:100EE0005F4C494748545F4252494748544E455326
:100EF0005300544F47474C455F4C494748545300B3
:100F0000534F4654574152455F504F574552004248
:100F100055494C445F50455243454E54004C45564C
:100F2000454C494E475F44415441005A5F50524F2F
:100F300042450052554E4F5554004155544F4C4573
:100F400056454C005052494E545F4A4F4200505251
:100F50004F4752455353004155544F5245504F52FD
:100F6000545F54454D50004155544F5245504F52D7
:100F7000545F504F5300564F4C554D4554524943C2
:100F800000454550524F4D0042494E4152595F462F
:100F9000494C455F5452414E5346455200534552C9
:100FA00049414C5F584F4E5F584F464600464952A4
:100FB0004D574152455F4E414D453A4D61726C6906
:100FC0006E20322E302E392E33202841707220327E
:100FD0003320323032322031373A32353A32322908
:100FE00020534F555243455F434F44455F55524C44
:100FF0003A6769746875622E636F6D2F4D61726C0C
:10100000696E4669726D776172652F4D61726C69A8
:101010006E2050524F544F434F4C5F5645525349E8
:101020004F4E3A312E30204D414348494E455F5492
:101030005950453A3344205072696E7465722045A8
:10104000585452554445525F434F554E543A3120FF
:10105000555549443A63656465326132662D3431D1
:1010600061322D343734382D396231322D633535C4
:101070006336326633363766660A0047322F4733A7
:101080002062616420706172616D65746572730ABB
:1010900000203B0020204D3835312058005A2D507B
:1010A000726F6265204F666673657400436F6F6C84
:1010B000696E672E2E2E0048656174696E672E2E4C
:1010C0002E0045312025530020573A004265642008
:1010D000436F6F6C696E672E2E2E00426564204848
:1010E000656174696E672E2E2E0023646566696ED5
:1010F000652044454641554C545F00626564004B91
:101100006420004B6920004B70200050494420416E
:1011100075746F74756E652066696E697368656451
:10112000212050757420746865206C617374204BA5
:10113000702C204B6920616E64204B6420636F6EBD
:101140007374616E74732066726F6D2062656C6F6C
:101150007720696E746F20436F6E66696775726180
:1011600074696F6E2E680A00504944204175746F8F
:1011700074756E65206661696C6564212074696DA3
:10118000656F75740A00504944204175746F747519
:101190006E65206661696C6564212054656D7065BB
:1011A00072617475726520746F6F20686967680A70
:1011B00000504944204379636C6573002553202512
:1011C000692F256900204B643A2000204B693A20A2
:1011D00000204B703A200020436C617373696320D8
:1011E000504944200A00204E6F206F766572736864
:1011F0006F6F740A002054753A2000204B753A2016
:1012000000206D61783A2000206D696E3A20002040
:10121000643A200020626961733A20005761697462
:1012200020666F7220686561742075702E2E2E0006
:10123000504944204175746F74756E6520737461F4
:1012400072740A00504944204175746F74756E655C
:10125000206661696C6564212054656D70657261FA
:101260007475726520746F6F20686967680A005032
:101270004944204175746F74756E6500504944206F
:101280004175746F74756E65206661696C65642163
:1012900020426164206865617465722069640A0097
:1012A000A10000006900A20000006300B00000007F
:1012B0000900C10000004100C20000004100C3005D
:1012C00000004100C40000004100C50000004100D2
:1012D000C60000004145C70000004300C8000000F0
:1012E0004500C90000004500CD0000004900D100C4
:1012F00000004E00D50000004F00D60000004F0057
:10130000D70000007800DC0000005500DD00000080
:101310005900E00000006100E10000006100E2000F
:1013200000006100E30000006100E40000006100D3
:10133000E50000006100E60000006165E7000000D4
:101340006300E80000006500E90000006500EA00B5
:1013500000006500EB0000006500EC000000690083
:10136000ED0000006900EE0000006900EF000000E1
:101370006900F10000006E00F20000006F00F30051
:1013800000006F00F40000006F00F50000006F0027
:10139000F60000006F00F80000006F00F900000088
:1013A0007500FA0000007500FB0000007500FC00ED
:1013B00000007500FD0000007900FF0000007900CA
:1013C0000401000041000501000061000601000069
:1013D00043000701000063000C01000043000D0101
:1013E000000063000E01000044000F0100006400D3
:1013F0001101000064001901000065001A010000DD
:1014000045001B01000065001F010000670030015E
:1014100000004900310100006900410100004C005A
:10142000420100006C00430100004E004401000036
:101430006E00480100006E00580100005200590182
:10144000000072005A01000053005B0100007300AD
:101450005F010000730060010000530061010000A3
:1014600073006501000074006F01000075007C01CD
:1014700000007A007D0100005A007E0100007A0021
:10148000920100006600E3020000780022200000C4
:101490002E001E210000507822210000544D902182
:1014A00000003C2D922100002D3EB02100000300E1
:1014B000BB21000004003C2200007E004822000006
:1014C0007E3D60220000213D612200003D0064223B
:1014D00000003C3D652200003E3DF1230000070076
:1014E000A03000003D0021F301000200C2F4010021
:1014F0000500A2000000EC00B0000000DF00E400E6
:101500000000E100F6000000EF00F7000000FD0021
:10151000FC000000F500E3020000EB008703000080
:10152000A5008F030000F40098030000F2009E0362
:101530000000E300A3030000F600A9030000F4008C
:10154000AC030000E000AD030000E300B1030000C5
:10155000E000B2030000E200B5030000E300B803BE
:101560000000F200BC030000E400BE030000E30042
:10157000C0030000F700C1030000E600C303000041
:10158000E500902100007F00922100007E001A22D9
:101590000000E8001E220000F30088250000FF0084
:1015A00002300000A1000C300000A2000D3000004D
:1015B000A3009B300000DE009C300000DF00A03064
:1015C00000003D00A1300000A700A2300000B100E3
:1015D000A3300000A800A4300000B200A530000035
:1015E000A900A6300000B300A7300000AA00A83070
:1015F0000000B400A9300000AB00AA300000B50024
:10160000AB300000B600AC300000B6DEAD300000FC
:10161000B700AE300000B7DEAF300000B800B03029
:101620000000B8DEB1300000B900B2300000B9DE11
:10163000B3300000BA00B4300000BADEB5300000AC
:10164000BB00B6300000BBDEB7300000BC00B830D5
:101650000000BCDEB9300000BD00BA300000BDDEC5
:10166000BB300000BE00BC300000BEDEBD3000005C
:10167000BF00BE300000BFDEBF300000C000C03081
:101680000000C0DEC1300000C100C2300000C1DE79
:10169000C3300000AF00C4300000C200C5300000FD
:1016A000C2DEC6300000C300C7300000C3DEC83051
:1016B0000000C400C9300000C4DECA300000C5000C
:1016C000CB300000C600CC300000C700CD30000099
:1016D000C800CE300000C900CF300000CA00D030B2
:1016E0000000CADED1300000CADFD2300000CB00DB
:1016F000D3300000CBDED4300000CBDFD53000008B
:10170000CC00D6300000CCDED7300000CCDFD830A3
:101710000000CD00D9300000CDDEDA300000CDDF92
:10172000DB300000CE00DC300000CEDEDD3000001B
:10173000CEDFDE300000CF00DF300000D000E03030
:101740000000D100E1300000D200E2300000D30000
:10175000E3300000AC00E4300000D400E5300000CD
:10176000AD00E6300000D500E7300000AE00E83004
:101770000000D600E9300000D700EA300000D800B1
:10178000EB300000D900EC300000DA00ED30000052
:10179000DB00EF300000DC00F2300000A600F33088
:1017A0000000DD00F4300000B3DEF7300000DCDEC6
:1017B000FA300000A6DEFB300000A500FC3000007F
:1017C000B000FD300000A400074E0000FB00865171
:1017D0000000FC0043530000FA0064FF0000A40076
:1017E00065FF0000A50066FF0000A60067FF00007F
:1017F000A70068FF0000A80069FF0000A9006AFFB9
:101800000000AA006BFF0000AB006CFF0000AC0002
:101810006DFF0000AD006EFF0000AE006FFF000026
:10182000AF0070FF0000B00071FF0000B10072FF58
:101830000000B20073FF0000B30074FF0000B400AA
:1018400075FF0000B50076FF0000B60077FF0000CE
:10185000B70078FF0000B80079FF0000B9007AFFF8
:101860000000BA007BFF0000BB007CFF0000BC0052
:101870007DFF0000BD007EFF0000BE007FFF000076
:10188000BF0080FF0000C00081FF0000C10082FF98
:101890000000C20083FF0000C30084FF0000C400FA
:1018A00085FF0000C50086FF0000C60087FF00001E
:1018B000C70088FF0000C80089FF0000C9008AFF38
:1018C0000000CA008BFF0000CB008CFF0000CC00A2
:1018D0008DFF0000CD008EFF0000CE008FFF0000C6
:1018E000CF0090FF0000D00091FF0000D10092FFD8
:1018F0000000D20093FF0000D30094FF0000D4004A
:1019000095FF0000D50096FF0000D60097FF00006D
:10191000D70098FF0000D80099FF0000D9009AFF77
:101920000000DA009BFF0000DB009CFF0000DC00F1
:101930009DFF0000DD009EFF0000DE009FFF000015
:10194000DF00E5FF00005C0042656400456E636CEB
:101950006F73757265002568753A253032687500B9
:1019600025303268753A2530326875002530326886
:1019700075272530326875002D2D2D005344002029
:101980002020202020200020202020006E6F74695D
:101990006669636174696F6E200063616E63656C74
:1019A000005072696E742041626F727465640055F4
:1019B000492041626F72746564004D323520500ACF
:1019C0004D323400526573756D6500554920506184
:1019D0007573650050617573696E672E2E2E0072E7
:1019E0006573756D65004D323400454550524F4D5D
:1019F0002056657273696F6E204572726F72004572
:101A00004550524F4D20496E646578204572726F83
:101A10007200454550524F4D20435243204572724B
:101A20006F72003F0049676E6F72650052657365A3
:101A30007400496E697469616C697A652045455026
:101A4000524F4D0050726F6265205A204F66667388
:101A50006574004C6F6164206D6D00556E6C6F6134
:101A600064206D6D0046696C2E204469612E00452E
:101A700020696E206D6D5E3300416476616E636532
:101A8000204B0020022046616374002002204D613B
:101A900078002002204D696E004F6666004F6E0090
:101AA0004175746F74656D70004D696E205472617C
:101AB00076656C2056656C004D696E2056656C6FBE
:101AC00063697479004D617820452056656C004D3E
:101AD0006178205A2056656C004D61782059205657
:101AE000656C004D617820582056656C004D61781A
:101AF000204520416363656C004D6178205A204188
:101B00006363656C004D6178205920416363656CA7
:101B1000004D6178205820416363656C0054726108
:101B200076656C20416363656C0052657472616315
:101B30007420416363656C00416363656C0050729F
:101B40006F6265205A204F66667365740050726F2D
:101B500062652059204F66667365740050726F622B
:101B6000652058204F666673657400452073746560
:101B700070732F6D6D005A2053746570732F6D6DE7
:101B800000592053746570732F6D6D005820537485
:101B90006570732F6D6D00416476616E63656420BE
:101BA00053657474696E6773003F0043616E6365CB
:101BB0006C00496E6974004D34323800496E6974A6
:101BC00069616C697A6520454550524F4D00466900
:101BD0006C616D656E740054656D706572617475CD
:101BE00072650053746570732F6D6D0050726F6273
:101BF00065204F666673657473004A756E63746919
:101C00006F6E2044657600416363656C6572617434
:101C1000696F6E0056656C6F636974790053657403
:101C200020486F6D65204F66667365747300436F5F
:101C30006E66696775726174696F6E0042656400F3
:101C40004E6F7A7A6C650046616E205370656564EC
:101C500000436F6E66696775726174696F6E0052DA
:101C60006573746F72652044656661756C7473008A
:101C70004C6F61642053657474696E6773005374AC
:101C80006F72652053657474696E67730050726576
:101C900068656174202420436F6E660050726F6225
:101CA00065205A204F666673657400416476616EE4
:101CB0006365642053657474696E6773004D616970
:101CC0006E004D37303220542564004D36303020C0
:101CD000423020542564004D373032203B256400CB
:101CE0004D37303120542564004368616E676520AC
:101CF00046696C616D656E740050726568656174EB
:101D000020437573746F6D0050726568656174204F
:101D100024004261636B004D363030423000436F27
:101D20006E74696E7565005075726765206D6F72AF
:101D30006500524553554D45204F5054494F4E5321
:101D40003A005052494E54205041555345440020CA
:101D5000204E6F7A7A6C653A200041425300504C15
:101D600041005061726B696E672E2E2E0000005785
:101D700061697420666F720066696C616D656E746E
:101D8000206368616E676500746F2073746172749C
:101D9000005761697420666F720066696C616D65D9
:101DA0006E7420756E6C6F616400004E6F7A7A6C91
:101DB000652068656174696E6700506C6561736564
:101DC00020776169742E2E2E000050726573732087
:101DD000627574746F6E00746F2068656174206E34
:101DE0006F7A7A6C650000496E736572742066695B
:101DF0006C616D656E7400616E64207072657373E2
:101E000020627574746F6E00746F20636F6E7469F6
:101E10006E7565005761697420666F720066696C43
:101E2000616D656E74206C6F616400005072657343
:101E30007320427574746F6E00746F2072657375D1
:101E40006D65207072696E74000057616974206658
:101E50006F72207072696E7400746F207265737592
:101E60006D652E2E2E00005761697420666F72001A
:101E700066696C616D656E742070757267650000CF
:101E80003F004261636B0053746F70003F004E4F20
:101E900000594553004E6F204D65646961005072D2
:101EA000696E742066726F6D204D656469610043D0
:101EB00068616E6765204D65646961004D3231006F
:101EC0004368616E67652046696C616D656E74007C
:101ED000436F6E66696775726174696F6E005465F1
:101EE0006D7065726174757265004D6F74696F6EA7
:101EF00000526573756D65205072696E740054757B
:101F00006E650053746F70205072696E740050617A
:101F1000757365205072696E7400496E666F205348
:101F2000637265656E003F00537461727420507275
:101F3000696E740043616E63656C005072696E7403
:101F40000043616E6E6F7420656E746572207375E8
:101F5000626469723A200005202E2E004D61696E80
:101F6000002100486F74656E6420746F6F20636F8A
:101F70006C64004261636B0050726F63656564005E
:101F80004D6F74696F6E0044697361626C652053B4
:101F900074657070657273004D3834004D343820AC
:101FA00050726F62652054657374004732384F0A6F
:101FB0004D343820503130004661646520486569F1
:101FC000676874004F6666004F6E00426564204C7F
:101FD0006576656C696E67004C6576656C20426558
:101FE00064004732394E004732385A004732385978
:101FF00000486F6D652040004732385800417574C5
:102000006F20486F6D6500473238004D61696E0082
:1020100050726568656174202420426564005072C6
:102020006568656174202420456E640054656D7098
:1020300065726174757265005E1D5A1D436F6F6C29
:10204000646F776E00507265686561742024004685
:10205000616E20537065656400426564004E6F7A5E
:102060007A6C65004D61696E0050726F6265205A2E
:10207000204F666673657400416476616E63652007
:102080004B00466C6F770046616E20537065656447
:1020900000426564004E6F7A7A6C65005370656526
:1020A00064004D61696E006F70656E00545249475F
:1020B0004745524544003A20007A5F6D696E0079C9
:1020C0005F6D696E00785F6D696E005265706F724A
:1020D00074696E6720656E6473746F7020737461C9
:1020E0007475730A0020746F6F206C6F6E672065C3
:1020F0007874727573696F6E2070726576656E7430
:1021000065640A0020636F6C64206578747275736F
:10211000696F6E2070726576656E7465640A00483A
:102120006F6D65202573257325732046697273745E
:1021300000000080C1000000000000000057617234
:102140006E696E673A20486F6D696E672042756DE3
:10215000702044697669736F72203C20310A000256
:102160000204000063430000484300003E430000B7
:10217000A0400000A04000000040000053430000C9
:10218000484300003E43000080C100000000000002
:10219000000053657474696E67732053746F7265C1
:1021A0006400290A002062797465733B20637263BE
:1021B000200053657474696E67732053746F726581
:1021C0006420280048617264636F6465642044651C
:1021D0006661756C742053657474696E6773204C06
:1021E0006F616465640A0020286D6D2900203B2022
:1021F0004C6576656C696E67200020204D34323066
:102200002053004175746F20426564204C657665EB
:102210006C696E67002046002042002048002020A4
:102220004D3134352053004D6174657269616C2005
:1022300068656174757020706172616D6574657236
:10224000730020204D393030204B004C696E6561A1
:102250007220416476616E636500204A0020204749
:102260003239205720490020204D31343920432075
:102270003B20556E69747320696E2043656C7369E9
:1022800075730A0054656D706572617475726520AE
:10229000556E697473002020473231203B004C6931
:1022A0006E65617220556E69747300454550524FDA
:1022B0004D206461746173697A65206572726F7212
:1022C0002E0A00290A002062797465733B2063722C
:1022D0006320002073746F72656420736574746981
:1022E0006E67732072657472696576656420280074
:1022F000202863616C63756C6174656429210A0030
:1023000020213D2000454550524F4D20435243204F
:102310006D69736D61746368202D202873746F720A
:1023200065642920002053697A653A2000496E646B
:1023300065783A200000007A4300007A4333335333
:10234000400000C8410000A0420000A04200007A06
:102350004500003744B80B0000B80B0000640000D3
:102360000010270000204D61726C696E3D563836B2
:10237000290A00454550524F4D2076657273696FAA
:102380006E206D69736D61746368202845455052F5
:102390004F4D3D0024F4D43050C38E20C2A24017CC
:1023A000828B7011127A910D816CD90AA861E108B3
:1023B000C7586607615143061E4B5D05C145A7041A
:1023C0001A411104093D9803713931034036DB028B
:1023D00065339102D4305402802E1D02632CEE012D
:1023E000752AC501B028A001102781018F2564013D
:1023F0002B244B01E0223401AC211F018D200D0163
:10240000801FFC00841EED00971DDF00B81CD20069
:10241000E61BC600201BBC00641AB200B219A8005B
:102420000A19A0006A189900D117910040178B0073
:10243000B516840031167E00B31579003A15730085
:10244000C7146F0058146A00EE1366008813630007
:1024500025135E00C7125B006C1257001512540062
:10246000C111510070114F0021114B00D6104900CD
:102470008D1047004610440002104200C00F40007B
:10248000800F3E00420F3C00060F3B00CB0E380091
:10249000930E37005C0E3500270E3400F30D32002A
:1024A000C10D3100900D3000600D2E00320D2D0059
:1024B000050D2C00D90C2B00AE0C2900850C290031
:1024C0005C0C2700350C27000E0C2600E80B2400BE
:1024D000C40B2400A00B23007D0B23005A0B21000A
:1024E000390B2100180B2000F80A1F00D90A1E0022
:1024F000BB0A1E009D0A1D00800A1D00630A1C0005
:10250000470A1B002C0A1B00110A1A00F7091A00BF
:10251000DD091900C4091900AB0919009209170057
:102520007B091800630917004C09160036091600CC
:10253000200916000A091500F5081500E008140026
:10254000CC081400B8081400A40814009008130064
:102550007D0812006B08130058081200460812008C
:10256000340811002308110012081100010811009D
:10257000F0071000E0071000D0071000C00710009F
:10258000B0070F00A107100091070E0083070F008E
:1025900074070F0065070E0057070E0049070E006D
:1025A0003B070D002E070E0020070D0013070D003E
:1025B00006070D00F9060C00ED060D00E0060C0004
:1025C000D4060C00C8060C00BC060C00B0060C00BB
:1025D000A4060B0099060C008D060B0082060B006A
:1025E00077060B006C060B0061060A0057060B000D
:1025F0004C060A0042060A0038060A002E060A00A7
:1026000024060A001A060A001006090007060A0036
:10261000FD050900F4050900EB050900E2050900C4
:10262000D9050900D0050900C7050900BE05090044
:10263000B5050800AD050800A50509009C050800C2
:10264000940508008C050800840508007C05080036
:10265000740508006C050700650508005D050700A6
:10266000560508004E05070047050700400508000D
:1026700038050700310507002A0507002305070074
:102680001C050600160507000F05070008050600D3
:1026900002050700FB040600F5040700EE0406002F
:1026A000E8040600E2040700DB040600D504060087
:1026B000CF040600C9040600C3040600BD040600DA
:1026C000B7040600B1040500AC040600A604060029
:1026D000A00405009B040600950405009004060074
:1026E0008A04050085040500800406007A040500BC
:1026F00075040500700405006B0405006604050000
:10270000610405005C04050057040500520405003F
:102710004D04050048040500430405003E04040080
:102720003A04050035040500300404002C040500BB
:1027300027040400230405001E0404001A040400F6
:1027400016040500110404000D040400090405002A
:102750000404040000040400FC030400F803040063
:10276000F4030400F0030400EC030400E803040095
:10277000E4030400E0030400DC030400D8030400C5
:10278000D4030400D0030400CC030400C8030300F6
:10279000C503030024F404D9201BC40C5C0E980468
:1027A000C4095F0265077101F405F900FB04B30079
:1027B00048048700C103690058035500030345001E
:1027C000BE023A008402310053022A002902250089
:1027D00004022000E4011C00C8011900AF01170029
:1027E00098011400840113007101100061011000B0
:1027F00051010E0043010D0036010B002B010B00AF
:1028000020010B00150109000C010900030108005B
:10281000FB000800F3000800EB000700E4000600DE
:10282000DE000600D8000600D2000600CC0005003D
:10283000C7000500C2000500BD000400B900040087
:10284000B5000400B1000400AD000400A9000400BC
:10285000A5000300A20003009F0004009B000300EA
:10286000980003009500020093000300900003000D
:102870008D0002008B000300880002008600020029
:1028800084000300810002007F0002007D0002003E
:102890007B00020079000200770001007600020050
:1028A0007400020072000100710002006F0002005B
:1028B0006D0001006C0002006A0001006900020066
:1028C000670001006600010065000100640002006D
:1028D0006200010061000100600001005F00020071
:1028E0005D0001005C0001005B0001005A00010076
:1028F0005900010058000100570001005600010076
:102900005500010054000100530000005300010075
:102910005200010051000100500001004F00010071
:102920004E0000004E0001004D0001004C0001006F
:102930004B0000004B0001004A000100490001006B
:102940004800000048000100470001004600000068
:102950004600010045000000450001004400010060
:10296000430000004300010042000000420001005B
:102970004100000041000100400001003F00000054
:102980003F0001003E0000003E0001003D0000004D
:102990003D0001003C0000003C0000003C00010044
:1029A0003B0000003B0001003A0000003A0001003B
:1029B0003900000039000100380000003800000034
:1029C0003800010037000000370001003600000029
:1029D0003600000036000100350000003500000020
:1029E0003500010034000000340000003400010014
:1029F000330000003300000033000100320000000B
:102A000032000000320001003100000031000000FF
:102A100031000100300000003000000030000100F3
:102A20002F0000002F0000002F0000002F000100E9
:102A30002E0000002E0000002E0001002D000000DE
:102A40002D0000002D0000002D0001002C000000D2
:102A50002C0000002C0000002C0001002B000000C6
:102A60002B0000002B0000002B0001002A000000BA
:102A70002A0000002A0000002A00010029000000AE
:102A800029000000290000002900000029000100A1
:102A90002800000028000000280000002800000096
:102AA0002800010027000000270000002700000088
:102AB000270000002700010026000000260000007B
:102AC000260000002600000026000100250000006E
:102AD0002500000025000000250000002500000062
:102AE0002500010024000000240000002400000054
:102AF0002400000024000100230000002300000047
:102B00002300000023000000230000002300000039
:102B1000230001002200000022000000220000002B
:102B2000220000002200000022000100210000001D
:102B30002100000021000000210000002100000011
:102B40002100000021000100200000002000000002
:102B500020000000200000002000000020000000F5
:102B600020000000200001001F0000001F000000E6
:102B70001F0000001F0000001F0000001F000000D9
:102B80001F0001001E0000001E0000001E000000CB
:102B90001E000000C23100001C260000F4190000D5
:102BA000D80F0000EB080000C00400007502000010
:102BB0004001000020436F756E7420583A00426552
:102BC00064004531004500626564002C2073797310
:102BD00074656D2073746F70706564212048656141
:102BE0007465725F49443A200048656174696E6794
:102BF000204661696C65640048656174696E672090
:102C00006661696C6564004572723A204D415854A2
:102C1000454D50004D415854454D502074726967E0
:102C20006765726564004572723A204D494E54459D
:102C30004D50004D494E54454D50207472696767A0
:102C40006572656400544845524D414C2052554EC2
:102C50004157415900546865726D616C2052756E20
:102C60006177617900202F002042403A0020403AED
:102C70000020573A000009121B242D363F48415AC4
:102C8000536C657E7719100B023D342F2651584343
:102C90004A757C676E323B2029161F040D7A7368D3
:102CA000615E574C452B2239300F061D14636A7143
:102CB00078474E555C646D767F4049525B2C253ECB
:102CC0003708011A137D746F6659504B42353C2703
:102CD0002E1118030A565F444D727B60691E170C53
:102CE000053A3328214F465D546B627970070E1503
:102CF0001C232A31384148535A656C777E09001BE2
:102D0000122D243F3658514A437C756E67101902C4
:102D10000B343D262F737A6168575E454C3B322950
:102D2000201F160D046A6378714E475C55222B30C4
:102D300039060F141D252C373E0108131A6D647FC8
:102D40007649405B523C352E2718110A03747D6684
:102D50006F5059424B171E050C333A21285F564DD0
:102D6000447B7269600E071C152A233831464F5484
:102D70005D626B707900002110422063308440A5B1
:102D800050C660E770088129914AA16BB18CC1AD32
:102D9000D1CEE1EFF13112100273325222B55294CA
:102DA00042F772D662399318837BB35AA3BDD39C82
:102DB000C3FFF3DEE36224433420040114E664C756
:102DC00074A44485546AA54BB528850995EEE5CFD2
:102DD000F5ACC58DD55336722611163006D776F66A
:102DE000669556B4465BB77AA719973887DFF7FE22
:102DF000E79DD7BCC7C448E5588668A778400861F6
:102E00001802282338CCC9EDD98EE9AFF948896971
:102E1000990AA92BB9F55AD44AB77A966A711A5009
:102E20000A333A122AFDDBDCCBBFFB9EEB799B58C1
:102E30008B3BBB1AABA66C877CE44CC55C222C0395
:102E40003C600C411CAEED8FFDECCDCDDD2AAD0B11
:102E5000BD688D499D977EB66ED55EF44E133E32A9
:102E60002E511E700E9FFFBEEFDDDFFCCF1BBF3A61
:102E7000AF599F788F8891A981CAB1EBA10CD12D50
:102E8000C14EF16FE18010A100C230E32004502553
:102E90004046706760B9839893FBA3DAB33DC31CC7
:102EA000D37FE35EF3B1029012F322D232354214A3
:102EB0005277625672EAB5CBA5A89589856EF54F13
:102EC000E52CD50DC5E234C324A0148104667447F3
:102ED0006424540544DBA7FAB79987B8975FE77E67
:102EE000F71DC73CD7D326F2369106B01657667643
:102EF00076154634564CD96DC90EF92FE9C899E9B3
:102F0000898AB9ABA94458654806782768C018E192
:102F1000088238A3287DCB5CDB3FEB1EFBF98BD806
:102F20009BBBAB9ABB754A545A376A167AF10AD0E2
:102F30001AB32A923A2EFD0FED6CDD4DCDAABD8B52
:102F4000ADE89DC98D267C076C645C454CA23C8332
:102F50002CE01CC10C1FEF3EFF5DCF7CDF9BAFBAA6
:102F6000BFD98FF89F176E367E554E745E932EB282
:102F70003ED10EF01E7C3C3E5E2B3D3F2F5B5D3B09
:102F80002C2A225C0043616E6E6F74206F70656E38
:102F90002073756264697220004D6564696120491F
:102FA0006E6974204661696C0053442063617264E9
:102FB000206F6B0A006F70656E526F6F74206661D0
:102FC000696C65640A00766F6C756D652E696E6953
:102FD00074206661696C65640A004E6F205344205A
:102FE000636172640A000A4D3234004D3233202589
:102FF00073002E0A006F70656E206661696C6564EF
:103000002C2046696C653A200046696C6520736522
:103010006C65637465640A002053697A653A200020
:1030200046696C65206F70656E65643A2000454E98
:103030004420535542524F5554494E450A002220D0
:10304000706F73002220706172656E743A220053B3
:103050005542524F5554494E452043414C4C2074E3
:1030600061726765743A220053756263616C6C200B
:103070004F766572666C6F77004578636565646549
:1030800064206D617820535542524F5554494E4546
:103090002064657074683A0057726974696E6720BD
:1030A000746F2066696C653A20006672657368000B
:1030B000646F696E67002066696C653A20004E6F28
:1030C0007720002F6175746F25632E670070012CC7
:1030D0000190012701B0012201C0011D01F001187A
:1030E000011002130130020E016002090190020476
:1030F00001C002FF000003FA004003F5008003F066
:1031000000D003EB002004E6007004E100E004DCE2
:10311000004005D700C005D2004006CD00D006C84B
:10312000008007C3003008BE00F008B900C009B431
:1031300000B00AAF00B00BAA00D00CA500000EA092
:1031400000500F9B00C01096005012910000148C8C
:1031500000C0158700B0178200B0197D00D01B7821
:1031600000001E730040206E0090226900F024646D
:103170000040275F0090295A00E02B5500102E5088
:103180000020304B0010324600E033410090353CC7
:10319000001037370070383200A0392D00B03A28BF
:1031A00000A03B2300603C1E00103D1900903D1420
:1031B00000103E0F00703E0A00C03E0500003F00B8
:1031C00000403FFBFF803FF6FFC03FF1FF20205053
:1031D0006C616E6E65724275666665724279746581
:1031E000733A20002046726565204D656D6F7279D7
:1031F0003A200020436F6D70696C65643A2041701D
:103200007220323320323032320A00204C61737423
:1032100020557064617465643A20323032312D314A
:10322000322D3235207C20417574686F723A202827
:103230005361636861204A756E6765726D616E20C7
:103240002D2030342F32332F32322C2050727573B0
:1032500061206933290A004D61726C696E20322E3B
:10326000302E392E330A0020536F667477617265F1
:103270002052657365740A00205761746368646F37
:10328000672052657365740A002042726F776E2062
:103290006F75742052657365740A002045787465F3
:1032A000726E616C2052657365740A00506F7765A9
:1032B0007255700A0073746172740A00473238588C
:1032C00059004D31303031006F6B006572726F7292
:1032D0002077726974696E6720746F2066696C6507
:1032E0000A00446F6E6520736176696E67206669B7
:1032F0006C652E0A004D323900456E6473746F7030
:103300007300255320256320256320256320256332
:1033100000205A3A0020593A0020583A00656E645D
:1033200073746F7073206869743A200000000A0B90
:1033300002090C0D0E080703040100000000000044
:10334000000000000000000000000000000000007D
:10335000000000000000000012111000000000003A
:10336000000000000000000000000000000000005D
:103370000000004D6F76652025736D6D004D6F76F2
:103380006520302E316D6D004D6F766520316D6D8D
:10339000004D6F76652031306D6D004D6F76652084
:1033A00041786973004D6F76652045787472756455
:1033B0006572004D6F7665205A004D6F7665205915
:1033C000004D6F76652058005072696E74206672E9
:1033D0006F6D204D6564696100486F6D696E67208F
:1033E0004661696C656400FFFFFF50726F62696E31
:1033F00067204661696C65640A0050726F62696E8D
:1034000067204661696C656400205A3A20002059A3
:103410003A200042656420583A200073686F7700B4
:10342000626567696E0050757267654D6F72650001
:1034300050617573656400656E6400436F6E7469F6
:103440006E7565004C6F61642046696C616D656ED8
:1034500074205400496E736572742066696C616DE6
:10346000656E7420616E642070726573732062757E
:1034700074746F6E0A00726573756D6564004469DB
:10348000736D69737300526573756D696E67003390
:1034900044205072696E7465722052656164792EA1
:1034A000005072696E74696E672E2E2E005072691C
:1034B0006E742050617573656400220A00556E6B4E
:1034C0006E6F776E20636F6D6D616E643A202200BF
:1034D000204500205A0020590020204D3932205824
:1034E0000053746570732070657220756E69740086
:1034F0004572726F722077726974696E6720746F9B
:1035000020454550524F4D210A00DB0FC93F45BCB5
:10351000DA3F8FB30240FCF0274056946140FE4BE7
:103520009B4084A5D840E0231841346A5641E859AD
:10353000974164DBD5416E271742B4B75542CE1A86
:103540009742C8AED542B5885A43D40684BFA65F19
:10355000A7BF7443E0BF10B11AC01C2C58C0E8F6D6
:1035600097C0B849D6C04E4E17C124D355C1802448
:1035700097C1A0B5D5C1121A17C244AE55C278176B
:1035800097C26CACD5C267885AC320746F6F206C29
:103590006F6E6720657874727573696F6E207072D4
:1035A0006576656E7465640A0020636F6C642065DF
:1035B0007874727573696F6E2070726576656E745B
:1035C00065640A0020453A00205A3A0020593A0022
:1035D000583A004F4646004F4E00204553500A00CF
:1035E000204E53500A005B4D505D20505630312024
:1035F000006F6B0A00526573656E643A20006E6F4F
:1036000074696669636174696F6E2000000022004E
:10361000250028002B002E0031003400020100009C
:10362000050108010B0100002100240027002A00E9
:103630002D003000330001010000040107010A01E0
:1036400005050505070508080808020202020A0A1E
:10365000080804040404010101010101010103033C
:10366000030303030303040707070C0C0C0C0C0CE7
:103670000C0C0202020206060606060606060B0BE4
:103680000B0B0B0B0B0B0102102020080810204025
:103690001020408002010201080402010102040816
:1036A00010204080804020100804020180040201A4
:1036B00080402010080402010804020101020408ED
:1036C000102040800102040810204080001C1F11BF
:1036D000111F00000006191803130C00040E1F042C
:1036E0001C000000000E1315110E00001C1018170E
:1036F00005060500040A0A0A0A11110E0C12120C22
:1037000000000000001F1511151F00009A0098000E
:1037100011241FBECFEFD1E2DEBFCDBF00E00CBF52
:1037200084B78093641E14BE0FB6F894A895809158
:103730006000886180936000109260000FBE13E00B
:10374000A0E0B2E0EAE5F7E402E00BBF02C00790B8
:103750000D92A83AB107D9F72EE1A8EAB3E001C06B
:103760001D92A436B207E1F71BE1C7E8DBE100E0F8
:1037700006C021970109802FFE010F944420C6380E
:10378000D10780E00807A9F70F94390E0D949C2308
:103790000C94000081E08093F006089582E080930D
:1037A000F0060895CF93DF93EC01CB01BA010F949B
:1037B000831929EC38EC48EC5EE30F943B2120E0C0
:1037C00030E040E05FE30F945F200F94A82168830E
:1037D000DF91CF910895E091E70686E0E802F001DD
:1037E0001124EC54F94F8091CA0690E095838483AC
:1037F00008958F929F92AF92BF92CF92DF92EF92F5
:10380000FF926B017C0120E030E0A9010F947D194B
:1038100087FD6BC06DEB77E386E095E3A70196012A
:103820000F945F206B017C0120E030E040E251E426
:103830000F94E21920E030E040E251E40F94E219E5
:103840004B015C0120E030E0A901C701B6010F94F3
:103850007D1920E030E040EA50E487FF04C020E01A
:1038600030E040EA50ECC501B4010F945F2020E045
:1038700030E040E251E40F943B210F94A3219B01DF
:103880008BE237FF05C022273327261B370B8DE23B
:1038900080938B04C90164E670E00F943120CB0162
:1038A000EAE0F0E0BF010F943120805D80938C044A
:1038B000C901BF010F943120282FCB01BF010F9404
:1038C0003120805D80938D048EE280938E04205D94
:1038D00020938F048BE894E0FF90EF90DF90CF90DF
:1038E000BF90AF909F908F9008956DEB77E386E047
:1038F00095EB94CF8F929F92AF92BF92CF92DF922F
:10390000EF92FF92CF936B017C0120E030E0A901A0
:103910000F947D1987FDAAC06DEB77E386E095E3F0
:10392000A70196010F945F206B017C0120E030E03D
:10393000A9010F947D1987FF9EC0C701B601905859
:1039400020E030E040E251E40F94E21920E030E062
:1039500040E251E40F94E21920E030E040EA50E404
:103960000F945F2020E030E040E251E40F943B21CF
:103970000F94A3216B017C0180E28093890460E2B3
:1039800080E1C81687E2D806E104F1048CF0C70193
:10399000B60120E137E240E050E00F94C91FCA01B0
:1039A000B9012AE030E040E050E00F94C91F605DAB
:1039B00060938A0460E288EEC81683E0D806E104CA
:1039C000F1048CF0C701B60128EE33E040E050E08E
:1039D0000F94C91FCA01B9012AE030E040E050E06D
:1039E0000F94C91F605D60938B0460E284E6C81683
:1039F000D104E104F1048CF0C701B60124E630E003
:103A000040E050E00F94C91FCA01B9012AE030E03C
:103A100040E050E00F94C91F605D60938C048AE021
:103A2000882E912CA12CB12CC701B601A5019401BF
:103A30000F94C91FC62FCA01B901A50194010F94A3
:103A4000C91F605D60938D048EE280938E04C05D1B
:103A5000C0938F0489E894E0CF91FF90EF90DF90BE
:103A6000CF90BF90AF909F908F9008956DEB77E3CC
:103A700086E095EB55CF20E030E040E251E4C7010D
:103A8000B60162CF8F929F92AF92BF92CF92DF9298
:103A9000EF92FF92CF936B017C0120E030E0A9010F
:103AA0000F947D1987FD93C06DEB77E386E095E376
:103AB000A70196010F945F206B017C0120E030E0AC
:103AC00040E251E40F94E21920E030E04AE754E488
:103AD0000F94E2194B015C0120E030E0A901C7011D
:103AE000B6010F947D1920E030E040EA50E487FFF2
:103AF00004C020E030E040EA50ECC501B4010F946E
:103B00005F2020E030E040E251E40F943B210F942D
:103B1000A3216B017C01C114D104E104F10409F477
:103B20005BC0F7FE59C0F094E094D094C094C11CDF
:103B3000D11CE11CF11C8DE280938A04C701B601FF
:103B400028EE33E040E050E00F94C91F8AE0882E51
:103B5000912CA12CB12CCA01B901A50194010F949B
:103B6000C91F605D60938B048EE280938C04C70153
:103B7000B60124E630E040E050E00F94C91FCA01CE
:103B8000B901A50194010F94C91F605D60938D0474
:103B9000C701B601A50194010F94C91FC62FCA0120
:103BA000B901A50194010F94C91F605D60938E0453
:103BB000C05DC0938F048AE894E0CF91FF90EF90AE
:103BC000DF90CF90BF90AF909F908F9008956DEB56
:103BD00077E386E095EB6CCF80E2AECFCF93DF93B7
:103BE000EC01CB01BA010F94831920E030E040E2F0
:103BF00051E40F943B21688379838A839B83DF910F
:103C0000CF910895CF93DF93EC01CB01BA010F94CC
:103C1000831920E030E040E251E40F943B216883B7
:103C200079838A839B83DF91CF9108950F948319C1
:103C300020E030E040E251E40F943B215BCE0F9452
:103C4000831920E030E040E251E40F943B21D1CDD4
:103C5000CF93DF93EC01CB01BA010F9483192AE0D3
:103C600037ED43E25DE30F943B210F94A821688375
:103C700079838A839B83DF91CF910895CF93DF93DC
:103C8000EC01CB01BA010F9483192AE037ED43E22E
:103C90005DE30F943B21688379838A839B83DF9163
:103CA000CF910895CF93DF93EC01CB01BA010F942C
:103CB0008319688379838A839B83DF91CF910895E9
:103CC000CF93DF93EC01CB01BA010F948319688382
:103CD00079838A839B83DF91CF910895CF93DF937C
:103CE000EC01CB01BA010F9483190F94A3217983BE
:103CF0006883DF91CF910895CF93DF93EC01CB01DF
:103D0000BA010F94831920E030E04AE754E40F949D
:103D10003B21688379838A839B83DF91CF910895C8
:103D20000F94831920E030E04AE754E40F943B21DC
:103D3000A9CECF93DF93EC01CB01BA010F94831985
:103D400020E030E048EC52E40F943B216883798313
:103D50008A839B83DF91CF910895CF92DF92EF9278
:103D6000FF9223EF34E045E35FE3609148077091F1
:103D7000490780914A0790914B070F94E2192AE175
:103D800036EF45E95EE30F943B216B017C016091C6
:103D900040127091411280914212909143120F94FF
:103DA00081199B01AC01C701B6010F94E2190F9470
:103DB000CC226093600770936107809362079093B1
:103DC0006307FF90EF90DF90CF900895FC018491FE
:103DD0000895FC0180810895009751F0FC0180E076
:103DE0009191992331F0907C9038D1F38F5FF8CF87
:103DF00080E00895AF92BF92CF92DF92EF92FF9250
:103E00000F931F93CF93DF93EC015B018A01FB01BA
:103E1000199587FD16C0C82ED12CF12CE12C2196C6
:103E2000F801C082D182E282F382CE01DF91CF918C
:103E30001F910F91FF90EF90DF90CF90BF90AF90C8
:103E40000895982F907E903CA9F48F7190E0B0E097
:103E5000A0E06C017D0156E0CC0CDD1CEE1CFF1CCB
:103E60005A95D1F7CE010196F50119958F73C82A9D
:103E70002296D6CF982F907F903E11F58F7090E0CC
:103E8000B0E0A0E06C017D0136E0CC0CDD1CEE1C46
:103E9000FF1C3A95D1F7CE010196F50119958F7364
:103EA000C82A46E0CC0CDD1CEE1CFF1C4A95D1F75D
:103EB000CE010296F50119958F73C82A2396B0CFCB
:103EC000982F987F903F79F5877090E0B0E0A0E060
:103ED0006C017D0186E0CC0CDD1CEE1CFF1C8A957C
:103EE000D1F7CE010196F50119958F73C82A96E096
:103EF000CC0CDD1CEE1CFF1C9A95D1F7CE0102966E
:103F0000F50119958F73C82A26E0CC0CDD1CEE1C38
:103F1000FF1C2A95D1F7CE010396F50119958F73F1
:103F2000C82A24967DCF982F907C903841F4807CCD
:103F3000803869F42196CE01F5011995F8CF8E7F6E
:103F40008D3F28F02196CE01F5011995F8CFC12CAF
:103F5000D12C760165CFCF93DF93DB01F9019C91E2
:103F60009130C1F0943080F094509C938830D1F41B
:103F700080819181009771F0019791838083480F30
:103F8000591FEA01188206C08C3539F49C5F9C9356
:103F9000943041F4DF91CF9108958B3339F781E06C
:103FA0008C93F8CF20813181B9016F5F7F4F71838E
:103FB0006083420F531FEA018883808191818F358E
:103FC00091056CF7E7CF0F931F9381E00091C51D1A
:103FD0001091C61D2091C71D3091C81D4091C11D73
:103FE0005091C21D6091C31D7091C41D0417150727
:103FF0002607370708F480E01F910F91089590E09D
:1040000080E0089520910104833021F425FD0CC047
:1040100024FD0CC030E0A90102C0559547958A9552
:10402000E2F7CA018170089581E0089580E0089563
:1040300080911C0484FD0BC080911E0487FD07C085
:1040400090911F04937081E019F480E0089581E05D
:1040500008952FEB280F2A3108F047C0E22FF0E037
:1040600080911C0490911D04A0911E04B0911F0426
:1040700004C0B695A795979587952A95D2F780FDA8
:1040800002C081700895EE5FFB4FE081EE2341F1A5
:104090008091440790914507E80FF92FF11D808129
:1040A00090ED980F9A3030F08E3251F48181805328
:1040B0008A3098F4F093F703E093F60381E00895D3
:1040C0008D3211F08B3249F4818190ED980F9A3046
:1040D00088F38E3211F48281EACFF0E0E0E0EACF9B
:1040E0001092F7031092F603E9CF80E00895B1DF54
:1040F000882341F081E02091F6033091F703232BD0
:1041000009F480E008952F923F924F925F926F9250
:104110007F928F929F92AF92BF92CF92DF92EF9257
:10412000FF920F931F93CF93DF93CDB7DEB72E97F8
:104130000FB6F894DEBF0FBECDBFF82EE62E042FCB
:10414000122F282F30E03A872987862F90E09C870E
:104150008B87220F331FA985BA852A0F3B1F3E8705
:104160002D87FC01E20FF31FEE0FFF1FEE0FFF1F65
:10417000E654FB4F60817181828193819B01AC0188
:104180000F940E23882309F440C1802F8F0D612FD7
:104190006E0D282F30E0F901EE0FFF1FE20FF31F25
:1041A000AB85BC85AE0FBF1FAA0FBB1FAA0FBB1FDD
:1041B000A654BB4FAC901196BC9011971296CC9020
:1041C00012971396DC90080F802F90E0AC01440FFB
:1041D000551F480F591FAB85BC85A40FB51FAA0FEB
:1041E000BB1FAA0FBB1FA654BB4FEC901196FC90AF
:1041F000119712960C91129713969C90862F90E02F
:10420000AD85BE85A80FB91FAA0FBB1FAA0FBB1F84
:10421000A654BB4F8C9011967C90119712966C907F
:10422000129713965C90610F70E02D853E85260FE6
:10423000371F220F331F220F331F26543B4F3E8759
:104240002D87D9014C9011963C90119712961C9194
:10425000129713962C90E80FF91FEE0FFF1FEE0F29
:10426000FF1FE654FB4FB081B98321812A8332813D
:104270003B8383818C83FA01E60FF71FEE0FFF1F4C
:10428000EE0FFF1FE654FB4F90819D83A181AE830B
:10429000B281BF83238128879701402F592DB70111
:1042A000802F992D0F940E23882321F0E12CF12CDF
:1042B00000E0912C9501A601B501C6010F940E23D3
:1042C000882319F05701C02ED92C242D332D412FCE
:1042D000522D642D732D812F922D0F940E23882340
:1042E00021F0412C312C10E0212C282D372D462D8A
:1042F000552D682D772D862D952D0F940E2388230F
:1043000021F0842C732C612E522C2D813E814F8103
:1043100058856D817E818F8198850F940E23882327
:1043200021F01D821E821F82188629813A814B81CD
:104330005C8169817A818B819C810F940E23882313
:1043400041F03D8139838E818A839F819B83A8853B
:10435000AC83E985FA85EE0FFF1F29853A85E20FC8
:10436000F31F8B859C85E80FF91FEE0FFF1FEE0FE3
:10437000FF1FE654FB4FFA87E9879501A601B501B7
:10438000C6010F945F209701402F592D0F945E2096
:104390006B017C01282D372D462D552D682D772D4D
:1043A000862D952D0F945F20242D332D412F522DD6
:1043B0000F945E209B01AC01C701B6010F945F20F2
:1043C0006B017C0129813A814B815C8169817A8111
:1043D0008B819C810F945F202D813E814F81588578
:1043E0000F945E209B01AC01C701B6010F945F20C2
:1043F00020E030E040E450E40F943B21A985BA85E9
:104400006D937D938D939C9313972E960FB6F8948E
:10441000DEBF0FBECDBFDF91CF911F910F91FF90F7
:10442000EF90DF90CF90BF90AF909F908F907F9054
:104430006F905F904F903F902F9008952091BB0315
:104440003091BC03280F391F3093BC032093BB036A
:104450002091F6043091F704280F391F3093F704A8
:104460002093F6042091A1043091A204820F931F9F
:104470009093A2048093A1040895809167028823F9
:1044800041F0609184047091850441E081E00C94D6
:104490006FF508950F9483190F94A321CB010C9409
:1044A00054B60F94831929EC38EC48EC5EE30F9472
:1044B0003B2120E030E040E05FE30F945F200F9469
:1044C000A821862F0C94C1B6CF93DF9300D01F9202
:1044D000CDB7DEB70F94A8210F94811969837A8331
:1044E0008B839C83CE0101960E9427B50F900F907D
:1044F0000F900F90DF91CF9108950F9483192AE0C8
:1045000037ED43E25DE30F943B21DECFCF92DF92A4
:10451000EF92FF92CF93DF9300D01F92CDB7DEB71B
:104520006B017C0120E030E0A9010F947D1987FD2B
:104530001BC06DEB77E386E095E3A70196010F942E
:104540005F2069837A838B839C83CE0101960E94CE
:1045500027B50F900F900F900F90DF91CF91FF90A4
:10456000EF90DF90CF9008956DEB77E386E095EBC9
:10457000E4CF0F9483192AE037ED43E25DE30F9413
:104580003B21C4CF0F948319C1CFCF92DF92EF921A
:10459000FF926B017C0120E030E0A9010F947D19AE
:1045A00087FD26C06DEB77E386E095E3A7019601D2
:1045B0000F945F206B017C0120E030E0A9010F9493
:1045C0007D1920E030E040E05FE387FF04C020E099
:1045D00030E040E05FEBC701B6010F945F200F941D
:1045E000A321CB01FF90EF90DF90CF900C94AAB560
:1045F0006DEB77E386E095EBD9CF0F948319C5CFA8
:104600000F94831920E030E048EC52E40F943B21F2
:104610000C948FB70C9474A10C9474A10C9474A195
:104620000C9474A10C94FDA00C94FDA00C94FDA01E
:104630000C94FDA063E972E084E690E00E9403D848
:104640006AEB72E084E690E00C9403D88111F2CF1B
:1046500068EB71E084E190E00C9403D80E94F79D30
:10466000F5CF0E94FBCDF2CFCF92DF92EF92FF9277
:104670000F931F930E9424FA00912604109127049F
:1046800020912804309129046B017C01C01AD10AC1
:10469000E20AF30A9701860137FD11C02091250433
:1046A0002095209325046A547C4F8F4F9F4F609331
:1046B000260470932704809328049093290481E0B2
:1046C00090912504911101C080E01F910F91FF90FE
:1046D000EF90DF90CF900895CF93DF93C091A50620
:1046E000D091A606209729F16091A1067091A206AB
:1046F0008091A3069091A4060F94A3216E5F7F4F33
:1047000024976C177D07ACF47093F0046093EF046A
:104710000E9424FA605A75418F4F9F4F6093F104B5
:104720007093F2048093F3049093F404DF91CF919B
:1047300008951092F1041092F2041092F304109272
:10474000F404F4CF0E94C1C675CF20E044E064E1D8
:104750008AE89CE10E94A9FA0E9454EE8AE89CE152
:104760000C94A2FACF92DF92EF92FF920F931F93D5
:10477000CF93DF9300D000D0CDB7DEB78A0146E0FB
:10478000469F9001479F300D1124BC01620F731F9B
:1047900046E050E0CE0101960F94A618C980DA8059
:1047A000EB80FC80F80140815181628173818FEF41
:1047B0009FEFC416D506E606F70640F081E090E0CC
:1047C0004C155D056E057F0508F080E026960FB656
:1047D000F894DEBF0FBECDBFDF91CF911F910F9137
:1047E000FF90EF90DF90CF9008950F931F93CF939A
:1047F000DF93CDB7DEB72E970FB6F894DEBF0FBEAE
:10480000CDBF8A011E861D866F83788789879A8728
:104810002FEF2B87603871058105910538F48AE800
:104820009CE10E94A4DA81E090E02FC09E01235F0A
:104830003F4FAE01495F5F4F69EB70E082EF94E15B
:104840000E9400EE97FD2CC08D859E8526E0289F56
:10485000B001299F700D11246E507B4E46E050E050
:10486000CE0101960F94A6186D818AE89CE10E9402
:10487000A4DA01301105B9F26E816623A1F28AE84B
:104880009CE10E94A4DA82E090E02E960FB6F894A4
:10489000DEBF0FBECDBFDF91CF911F910F91089565
:1048A0009E01235F3F4FAE01495F5F4F63E670E0BB
:1048B00080EA92E10E9400EE97FD0BC08D859E85F7
:1048C00026E0289FB001299F700D112460567D4E6F
:1048D000C5CF6FE3A4CF8091F6039091F7030097C3
:1048E00031F04AE050E070E060E00D949E1760E027
:1048F00070E0CB0108958091F6039091F703009743
:1049000031F04AE050E070E060E00D94711660E034
:1049100070E0CB010895CF93DF93EB01E8DB8823B0
:1049200011F0E9DFEB01CE01DF91CF910895E3DFD4
:1049300097FD0AC0E0DF6F3F71058105910509F021
:104940002CF4D9DF862F089580E008958FEF089525
:10495000CF93C62FCCDB882311F0CF91E8CF8C2FDB
:10496000CF9108958091F6039091F703892B39F048
:10497000DEDF91E0811101C090E0892F089591E080
:10498000FCCFCF93DF93C82FD62FB1DB882319F04C
:10499000DF91CF91E7CF8C2F5CDB811101C08D2F90
:1049A000DF91CF910895A7DFCB010895CF93DF93D7
:1049B000EB019DDB882319F0DF91CF91F4CFCE017D
:1049C000DF91CF9108950F931F93CF938091F603BA
:1049D0009091F7030097E9F0FC018F01C1912C2F12
:1049E0002F7D81F0C53411F0C536B9F7F80110827A
:1049F00070E060E00F941B15F801C083CF911F9108
:104A00000F91089570E060E0CF911F910F910D9488
:104A10001B1560E070E0CB01F1CFCF92DF92EF92F7
:104A2000FF926A017B0163DB882329F0FF90EF90FE
:104A3000DF90CF90C8CFC701B601FF90EF90DF9015
:104A4000CF9008958F929F92AF92BF92CF92DF92B4
:104A5000EF92FF920F931F93CF9383EFE82E86E0A0
:104A6000F82E01E712E098E8C92E92E1D92EC0E0B5
:104A700088E58C0F3CDB882309F474C0A4DF4B016C
:104A80005C018C2FBFDA882309F462C0F801208111
:104A9000318142815381C501B4010F945F20F70138
:104AA0006083718382839383CF5FF4E0EF0EF11C08
:104AB0000C5F1F4F84E0C80ED11CC330C9F685E4DB
:104AC00016DB882309F459C07EDF6B017C0183E08B
:104AD00099DA882371F020917D0230917E02409115
:104AE0007F0250918002C701B6010F945F206B01D5
:104AF0007C01C092FF06D0920007E0920107F0927D
:104B0000020740E050E0BA0186E487DF20E030E0B1
:104B1000A9010F94862218167CF455DF20E030E0BE
:104B200040E752E40F943B216093270270932802E0
:104B30008093290290932A02CF911F910F91FF90A9
:104B4000EF90DF90CF90BF90AF909F908F9008959F
:104B5000F6012081318142815381C501B4010F9456
:104B60005E209DCFF80180819181A281B381F70100
:104B700080839183A283B38397CF80917D029091AC
:104B80007E02A0917F02B09180028093FF069093F5
:104B90000007A0930107B0930207B3CFEF92FF92F3
:104BA0000F931F93CF93DF9300D000D000D01F92BC
:104BB0001F92CDB7DEB77C0120918704422F022ED1
:104BC000000C550B80918804833099F1843051F1A9
:104BD0008BEC9CE15F932F939F938F938E010F5FDC
:104BE0001F4F1F930F930F941619C7010E947FB791
:104BF0004FE350E0B8018CE596E00F9482230F90CC
:104C00000F900F900F900F900F902B960FB6F89477
:104C1000DEBF0FBECDBFDF91CF911F910F91FF90EF
:104C2000EF90089587ED9CE127FDD4CF82EC9CE1C5
:104C3000D1CF80EE9CE1CECFE091E70686E0E8029E
:104C4000F0011124EC54F94F80819181A7CF80911C
:104C50001B0790911C07A2CF382F1092E606809177
:104C6000D1069091D206A091D306B091D406B7FF99
:104C700008C01092D1061092D2061092D30610925C
:104C8000D4062091D1062093C6061092E1068091A9
:104C9000C0061816ECF4082E000C990B831B910922
:104CA000022E000C330B2817390794F097FF02C02F
:104CB00090E080E08093C606092E000CAA0BBB0B87
:104CC0008093D1069093D206A093D306B093D406D6
:104CD0008091C6066623A9F09091C706891714F43F
:104CE0008093C7062091C706022E000C330B2D5F60
:104CF0003F4F482F082E000C550B241735071CF486
:104D000083508093C7060895E0917F04E63028F52C
:104D100081E08E0F80937F044091D1065091D2069E
:104D20006091D3067091D4062091C7069091C00679
:104D30008091EF0639E0E39FF0011124E75BFB4F20
:104D4000A091881CB091891CB183A08342835383B6
:104D5000648375832683978380870895CF93DF9339
:104D6000CDB7DEB78E819091D419891768F0809302
:104D7000D4199E01275F3F4F4F81588568E270E04C
:104D80008BEA99E10F944519DF91CF9108950F9324
:104D90001F930E9424FA00913D0410913E0420913B
:104DA0003F0430914004601B710B820B930B97FD05
:104DB0000CC086B186FB882780F991E08927349B57
:104DC0008260329B846080933C0480913C048170BB
:104DD00090913C0491FD826090913B04981749F0BA
:104DE000813009F148F0823079F0833091F080937E
:104DF0003B041F910F910895913079F09230B9F7EB
:104E000090913A049F5F0CC0992339F09330C1F31D
:104E1000EECF9130A9F3923051F790913A0491502E
:104E200090933A04E4CF992359F3933001F7F5CFE7
:104E3000CF92DF92EF92FF92CF93C82F0E9424FA75
:104E40006B017C0124EA30E74DE75FE360912102CA
:104E50007091220280912302909124020F947D1977
:104E600087FD18C08AEF90E0A0E0B0E08C0D9D1D9A
:104E7000AE1DBF1D80932A0490932B04A0932C0495
:104E8000B0932D04C0931702CF91FF90EF90DF9065
:104E9000CF90089580E090E0DC01E8CF56DC3E98AA
:104EA000469A3C98449A3A98429A71DF10923A0492
:104EB0000895FC0180E0309749F09491992331F0F6
:104EC000907C903809F08F5F3196F7CF089520E0FD
:104ED00030E040E05FE36091170770911807809120
:104EE000190790911A070F945F200F94A321CB010B
:104EF0000895CF92DF92EF92FF920F931F93CF937B
:104F0000DF9300D000D01F921F92CDB7DEB78E0185
:104F10000F5F1F4FD80130E020E0FB01E20FF31FCD
:104F2000E491ED932F5F3F4F28303105B1F798E0C2
:104F30008902B001112460648AE89CE10E949AFA17
:104F400083E790E00197F1F77801E8E0EE0EF11CBD
:104F50008BE9C82ED12CF80161918F018AE89CE180
:104F60000E94A4DAC6010197F1F7E016F10699F75D
:104F700028960FB6F894DEBF0FBECDBFDF91CF915C
:104F80001F910F91FF90EF90DF90CF9008954FEF1A
:104F90005FEF2BCCAF92BF92CF92DF92EF92FF9256
:104FA0000F931F93CF93DF9300D01F92CDB7DEB73F
:104FB0006C015B017A0110E000E00E151F05E0F4C2
:104FC00019821A821B821C82AE014F5F5F4FB501AE
:104FD000C6010E94FA1E6C0169817A818B819C81D5
:104FE000611571058105910539F0A701401B510B31
:104FF000FCDB080F191FE1CFC8010F900F900F9035
:105000000F90DF91CF911F910F91FF90EF90DF9064
:10501000CF90BF90AF900895AF92BF92CF92DF92A2
:10502000EF92FF920F931F93CF93DF9300D01F92C5
:10503000CDB7DEB77C01062F5A01122F862F660FDF
:10504000990B9C012F533D4F690111160CF03CC088
:10505000AE014F5F5F4F66EE7EE1C7010E94FA1E10
:105060007C0169817A818B819C8161157105810543
:10507000910551F16D3371058105910509F458C011
:105080006E3771058105910509F452C06A327105C8
:105090008105910549F507FF0FC08CE499E10E3FAA
:1050A00011F088E499E1412F012E000C550B66EEBA
:1050B0007EE170DF181B6AC065E470E080E090E07C
:1050C00066DF1150B9F510E0812F0F900F900F900F
:1050D0000F90DF91CF911F910F91FF90EF90DF9094
:1050E000CF90BF90AF90089564327105810591050E
:1050F00069F4A114B104C9F0412F012E000C550B25
:1051000066EE7EE1C50146DF181B9FCF6034710556
:105110008105910551F41150F6016081062E000CB5
:10512000770B880B990B33DF90CF31DF11508DCF88
:1051300007FDB3CF61E089819A81AB81BC81CD97B6
:10514000A105B10509F460E0600F6A30A4F01150C8
:10515000862F6AE00F941020092F682F880F770B95
:10516000605D7F4F072E000C880B990B10DF112319
:1051700009F4A9CF602F062E000C770B605D7F4FDE
:10518000072E000C880B990B02DF1150112309F434
:105190009ACF412F012E000C550B66EE7EE1C70120
:1051A000F9DE181B91CF4FEF5FEF69EE7EE1F2CE93
:1051B0004FEF5FEF66EE7EE1EDCE0F931F93CF933F
:1051C000DF9300D000D01F921F92CDB7DEB70091C1
:1051D00095021091960220919702309198020D83CA
:1051E0001E832F8338870091990210919A02209193
:1051F0009B0230919C0209831A832B833C839091FC
:10520000911C691710F06FEF690F262F30E0409165
:10521000921C2C0F3D1FF901403199F4943089F410
:105220006181680F60688AE89CE128960FB6F8945F
:10523000DEBF0FBECDBFDF91CF911F910F910C94B8
:105240009AFA6581EECF3F924F925F926F927F9272
:105250008F929F92AF92BF92CF92DF92EF92FF9286
:105260000F931F93CF93DF935C010F94CC1801969B
:105270008501080F191FC8010F94CC18F801608030
:10528000C1E0611001C0C0E0F801E80FF91FFF2480
:10529000F3948181811101C0F12C60E084E0DCDCB9
:1052A0007090C706D0E0CC2ED12CFFEFCF1ADF0ACA
:1052B000CF0CD11C92E0592E711094C080916702DE
:1052C000882391F0E0916C02E25062E47DE1E330EA
:1052D00038F4F0E0EE0FFF1FEB52FD4F608171815B
:1052E00043E08D2F0E946FF5C2E0662069F082E0F6
:1052F000781209C080916702882329F041E0B80143
:105300008D2F0E946FF5C3E0E1E0CE16D10409F4C1
:10531000CF5FC71192C080916702882309F48BC0C8
:1053200042E06FE47DE18D2F0E946FF54090F10621
:105330006D2F8BE042DF98D9382E47FE5EC020E00B
:1053400030E040E05FE36091A1067091A206809199
:10535000A3069091A4060F945F200F94A3214B0104
:10536000E090A506F090A60662E070E080E090E094
:105370000EDE8AE993E097FC03C0C4010E9454B694
:1053800012DF6FE270E080E090E001DE31103CC09F
:10539000FFEF21E04F1619F0242D47FC20E035E007
:1053A0002303F0011124E65DF84F8481882361F125
:1053B00060E270E080E090E0EADD8AE0E816F10467
:1053C0000CF455C060E270E080E090E0E0DDE4E6DF
:1053D000EE16F1040CF456C060E270E080E090E05C
:1053E000D6DD16C031E073127FCF8091670288232B
:1053F00009F47ACF41E0B50174CF69DD4C01E0904A
:105400001B07F0901C07B0CFC7010E9429B6CBDE66
:1054100061E070E080E090E0BADD60E270E080E0A2
:1054200090E0B5DDFAE0EF16F1042CF460E270E0F4
:1054300080E090E0ACDD509267027394DF5FD4307F
:1054400009F03ACFCF5FC093C006DF91CF911F9193
:105450000F91FF90EF90DF90CF90BF90AF909F9013
:105460008F907F906F905F904F903F90089561E094
:1054700070E080E090E08BDD60E270E080E090E042
:1054800086DDD4CF61E070E080E090E0F9CFFC01F0
:10549000A081B1811C92A281B3818C918F5F8C938A
:1054A0000280F381E02D608180E087CE4F925F9291
:1054B0006F927F928F929F92BF92CF92DF92EF92E4
:1054C000FF920F931F93CF93DF9300D000D01F92D2
:1054D0001F92CDB7DEB77C013B016A014901FB0198
:1054E0006081FC01808169DEC114D10461F1FA821E
:1054F000E9827C826B8201111FC0AE014B5F5F4F5E
:10550000B401C6010E94FA1E6C016D817E818F81FB
:1055100098856115710581059105A9F038DDF701C0
:1055200080818F5F8083843140F3CE010196AFDFAD
:10553000E4CFB12C860129C08601B12C26C04528B4
:1055400046284728B1F728960FB6F894DEBF0FBE5D
:10555000CDBFDF91CF911F910F91FF90EF90DF9022
:10556000CF90BF909F908F907F906F905F904F9063
:105570000895B39407C0B1102EC001151105C9F2EA
:105580000F5F1F4F01151105A9F2AE014B5F5F4F71
:10559000B401C6010E94FA1E6C014D805E806F80CE
:1055A00078844114510461047104A9F0F0E24F16AB
:1055B000510461047104F9F2D301C2018D97A1096C
:1055C000B1090297A105B10530F04BE24416510430
:1055D0006104710471F6F7018081482F4B0D552746
:1055E000551F453151052CF0853018F0CE0101963C
:1055F0004EDF81E0411451046104710409F480E03C
:10560000B80EF70180818B0D8083BB2009F497CF02
:10561000BA94AE014B5F5F4FB401C8010E94FA1EFD
:105620008C016D817E818F819885B1DCEECFCF9228
:10563000DF92EF92FF9269017A01BFDDC701B601E7
:10564000FF90EF90DF90CF90A2CCCF92DF92FF92AD
:105650000F931F93CF93DF938C01EB01C090E8066B
:10566000D090E906F090E70661E080E0A6DD23E156
:10567000A6016F2DC801D0DC182F2097F9F06AE33E
:1056800070E080E090E083DCCE010E94EC1E8F5F32
:10569000115061E0181708F462E020E230E040E0C9
:1056A00050E094E1981B892FC2DFCE01DF91CF91AA
:1056B0001F910F91FF90DF90CF9075CDDF91CF912B
:1056C0001F910F91FF90DF90CF900895CF92DF92BE
:1056D000EF92FF920F931F93CF93DF93C82ED62E96
:1056E0007A01E901209709F45EC0C901002359F14C
:1056F000E0DB182F2EE330E040E050E0C11004C0A2
:1057000020E230E040E050E06D2D80E090DF22E1CB
:10571000211B4091E8065091E9066091E706C70118
:105720007BDCF82E112309F442C06AE370E080E0CC
:1057300090E02DDCFF2051F060E270E080E090E02E
:1057400026DCFA94F7CF0E94EC1ED3CFCE010023C3
:1057500049F0DF91CF911F910F91FF90EF90DF9073
:10576000CF9026CDDF91CF911F910F91FF90EF90B9
:10577000DF90CF9018CD2EE330E040E050E06D2D6B
:1057800080E055DF4091E8065091E90622E1609102
:10579000E706C701DF91CF911F910F91FF90EF9026
:1057A000DF90CF9039CC8111E6CF10E0A9CFDF9107
:1057B000CF911F910F91FF90EF90DF90CF900895C0
:1057C0000F93CF93DF93EA01811101C020E2022EF3
:1057D000000C330B440B550B80E029DF4091E806A9
:1057E0005091E90622E16091E706CE0115DCC82F51
:1057F000CC2339F060E270E080E090E0C8DBC1507B
:10580000F7CF602F000F770B880B990BDF91CF91AB
:105810000F91BDCB0F93CF93DF93CDB7DEB700E2EF
:105820002EE349855A8568858F81CADFDF91CF9144
:105830000F910895AF92BF92CF92DF92EF92FF92B5
:105840000F931F93CF93DF9361E081E005DAC0915E
:10585000C70604E00C0FD1E08EE1E82E8DE1F82EB2
:1058600012E01C1B97E2C92E9DE1D92EBD2EBC1A59
:10587000AC2EA194C1112EC0DD23D9F08091C606B3
:105880001816BCF04091D1065091D2066091D30613
:105890007091D4064F5F5F4F6F4F7F4F4093D1069B
:1058A0005093D2066093D3067093D4068F5F809393
:1058B000C60680916702882331F041E062E37DE112
:1058C0008A2D0E946FF5CF5F0C13D4CF83E08093B5
:1058D000C0061FC0C13041F59091C606913069F0F5
:1058E000809167028823C1F11F92DF92CF92BF920D
:1058F00081E0913051F180E028C08091C106109282
:10590000C106882369F3C093F0068091E1068823DD
:1059100039F3DF91CF911F910F91FF90EF90DF90BE
:10592000CF90BF90AF900895C23069F69091C606AF
:105930009230A1F080916702882371F01F92FF924C
:10594000EF921F9381E09230B1F68F9363DF0F9057
:105950000F900F900F900F90D0E0B5CF8091C106BF
:105960001092C106882331F3C093F0068091E106BE
:10597000882301F3CECF0C9434FC8F929F92AF9288
:10598000BF92CF92DF92EF92FF920F931F93CF932C
:10599000DF9310922104109220042FE3209324041B
:1059A000109223041092220410921C0410921D04E1
:1059B00010921E0410921F049C01F90190812F5F28
:1059C0003F4F9032D1F39E34C9F4818190ED980F0E
:1059D0009A3020F08D3211F08B3281F432969F0193
:1059E0002F5F3F4F808180538A3008F46BC09F0146
:1059F0002F5F3F4F8081803209F466C0F0934507E6
:105A0000E09344078F010F5F1F4FC0816AE270E08F
:105A1000C8010F946223009731F0FC013197808117
:105A20008032E1F31182CD3421F0C43511F0C73456
:105A3000E1F5F80180810F5F1F4F8032D1F3805371
:105A40008A3098F5C093240430E020E06AE0AF018A
:105A50004F5F5F4F629FC001639F900D11249C01B7
:105A6000205331098081280F311D87FD3A95FA01B5
:105A7000808180538A3058F330932304209322048A
:105A8000DF0131968C918032D9F3CD3449F52E3136
:105A9000310539F0D8F42731310519F02C313105B1
:105AA000F9F4B0932104A0932004DF91CF911F91CA
:105AB0000F91FF90EF90DF90CF90BF90AF909F90AD
:105AC0008F900895F9018BCFF90191CF25373105DA
:105AD00038F02737310528F3203A83E0380709F3F7
