:100000000C947D1B0C94BD1B0C94BD1B0C94BD1B50
:100010000C94BD1B0C94BD1B0C94BD1B0C94BD1B00
:100020000C94BD1B0C94BD1B0C94BD1B0C94BD1BF0
:100030000C94BD1B0C94BD1B0C94BD1B0C94BD1BE0
:100040000C94BD1B0C94809F0C94BD1B0C94BD1B89
:100050000C94BD1B0C94BD1B0C94469E0C943AF959
:100060000C94BD1B0C94205E0C94165E0C94BD1B6E
:100070000C94BD1B0C94BD1B0C94BD1B0C94BD1BA0
:100080000C94BD1B0C94BD1B0C94BD1B0C94BD1B90
:100090000C94BD1B0C94BD1B0C94BD1B0C94BD1B80
:1000A0000C94BD1B0C94BD1B0C94BD1B0C94BD1B70
:1000B0000C94BD1B0C94BD1B0C94BD1B0C94BD1B60
:1000C0000C94BD1B0C94BD1B0C94BD1B0C94BD1B50
:1000D0000C94BD1B0C94BD1B0C94BD1B0C94BD1B40
:1000E0000C94BD1B084AD73B3BCE016E84BCBFFDC0
:1000F000C12F3D6C74319ABD56833DDA3D00C77FF8
:1001000011BED9E4BB4C3E916BAAAABE0000008090
:100110003F05A84CCDB2D44EB93836A9020C50B91F
:10012000918688083CA6AAAA2ABE000000803F004B
:100130000D944C120D94110B4E414E494E49545999
:10014000494E46CDCCCC3D0AD7233C17B7D13877A2
:10015000CC2B329595E6241FB14F0A0000204100B8
:1001600000C84200401C4620BCBE4CCA1B0E5AAE02
:10017000C59D7400407A10F35A00A0724E18090011
:1001800010A5D4E80000E87648170000E40B5402FC
:100190000000CA9A3B000000E1F505000080969837
:1001A00000000040420F000000A086010000001087
:1001B0002700000000E803000000006400000000C9
:1001C000000A00000000000100000000002C76D8AA
:1001D00088DC674F0823DFC1DFAE59E1B1B796E590
:1001E000E3E453C63AE651997696E8E6C28426EBF4
:1001F000898C9B62ED407C6FFCEFBC9C9F40F2BA07
:10020000A56FA5F490055A2AF75C936B6CF9676D9E
:10021000C11BFCE0E40D47FEF520E6B500D0ED90F3
:100220002E0300943577050080841E080000204EC0
:100230000A000000C80C333333330F986E12831159
:1002400041EF8D2114893BE65516CFFEE6DB18D130
:10025000844B381BF77C1D901DA4BBE42420328402
:10026000725E228100C9F124ECA1E53D27434F4D88
:100270004D554E49434154494F4E004452595255F1
:100280004E004552524F525300494E464F0045438F
:10029000484F00554E4C4F41442046494C414D4536
:1002A0004E54004C4F41442046494C414D454E541C
:1002B0000046494C414D454E54204348414E474528
:1002C0000053544F505045442E20005072696E74B4
:1002D00065722073746F7070656420647565207436
:1002E0006F206572726F72732E2046697820746871
:1002F00065206572726F7220616E6420757365206F
:100300004D39393920746F20726573746172742E9F
:10031000202854656D70657261747572652069730B
:100320002072657365742E20536574206974206192
:10033000667465722072657374617274696E672980
:100340000A004E6F20436865636B73756D20776993
:100350007468206C696E65206E756D6265722C2004
:100360004C617374204C696E653A20004E6F2043D7
:100370006865636B73756D2077697468206C696E4E
:1003800065206E756D6265722C204C617374204C13
:10039000696E653A2000636865636B73756D206DE7
:1003A00069736D617463682C204C617374204C69AF
:1003B0006E653A20004C696E65204E756D626572FF
:1003C000206973206E6F74204C617374204C696EC9
:1003D00065204E756D6265722B312C204C617374F3
:1003E000204C696E653A20004D3131300053657202
:1003F00069616C20737461747573206D69736D61CC
:100400007463680A005344207265616420657272E7
:100410006F720A002121204B494C4C206361757397
:100420006564206279204B494C4C20627574746F6E
:100430006E2F70696E0A002121204B494C4C2063BD
:10044000617573656420627920746F6F206D7563C8
:100450006820696E6163746976652074696D6520D2
:100460002D2063757272656E7420636F6D6D616EA1
:10047000643A2000627573793A207061757365641F
:1004800020666F7220696E7075740A0062757379E8
:100490003A2070617573656420666F7220757365AC
:1004A000720A00627573793A2070726F63657373B4
:1004B000696E670A004D656469612052656D6F76EB
:1004C0006564004D6564696120496E736572746589
:1004D0006400506C656173652052657365740050EB
:1004E00052494E5445522048414C544544002553EE
:1004F0003A20255300706F7765726F6666004B492E
:100500004C4C45442E20005072696E746572206810
:10051000616C7465642E206B696C6C2829206361A2
:100520006C6C6564210A006563686F3A00457272FD
:100530006F723A004F4646004F4E0042696C696E3A
:10054000656172204C6576656C696E6720477269DB
:10055000643A0A002F2F616374696F6E3A007072FB
:100560006F6D70745F00627574746F6E00486F74A5
:10057000656E6420746F6F20636F6C640A00507244
:1005800065737320627574746F6E20746F2072656A
:1005900073756D650A00496E736572742066696CC7
:1005A000616D656E7420616E642070726573732076
:1005B000627574746F6E0A005265686561742044D8
:1005C0006F6E6500526568656174696E672E2E2EC8
:1005D00000526568656174004865617465722054F5
:1005E000696D656F75740050726573732062757400
:1005F000746F6E20746F2068656174206E6F7A7AF4
:100600006C650A004E6F7A7A6C65205061726B657A
:100610006400706175736564005061757365004FA7
:1006200046460A004661646520486569676874202B
:1006300000426564204C6576656C696E67200046F3
:1006400061696C656420746F20656E61626C652001
:10065000426564204C6576656C696E670A00496E78
:1006600076616C6964206D6573682E0A0050726F44
:1006700062696E6720506F696E740025532025698A
:100680002F2569002E0A002F0050726F62696E6775
:10069000206D65736820706F696E74200020284497
:1006A000525952554E2900473239204175746F20F6
:1006B000426564204C6576656C696E67003F202852
:1006C0004C2C522C462C4229206F7574206F6620CA
:1006D000626F756E64732E0A003F28562965726238
:1006E0006F7365206C6576656C20696D706C6175E3
:1006F0007369626C652028302D34292E0A0042610E
:1007000064205A2076616C75650A004E6F2062691C
:100710006C696E65617220677269640A004465766F
:10072000696174696F6E0025533A2025730046692C
:100730006E6973686564210A003A207A3A200020C5
:100740006F662000476F696E6720746F3A2058000B
:1007500043570A00206469723A0020616E676C6535
:100760003A005374617274207261646975733A005F
:100770004D343820506F696E740025533A2025643B
:100780002F256400506F736974696F6E696E6720FE
:100790007468652070726F62652E2E2E0A003F4CC1
:1007A000656773206F66206D6F76656D656E74206A
:1007B000696D706C61757369626C652028302D31CC
:1007C00035292E0A003F2028582C5929206F75748E
:1007D000206F6620626F756E64732E0A0050726F10
:1007E0006265206F7574206F6620626F756E64732A
:1007F000003F53616D706C652073697A65206E6F80
:100800007420706C61757369626C652028342D35B5
:1008100030292E0A004D3438205A2D50726F6265EF
:10082000205265706561746162696C6974792054E5
:100830006573740A003F2856296572626F736520DC
:100840006C6576656C20696D706C61757369626C3E
:10085000652028302D34292E0A005374616E64619E
:10086000726420446576696174696F6E3A20002075
:1008700052616E67653A2000204D61783A20002071
:100880004D696E3A2000205369676D613A20004D32
:1008900065616E3A200020440020204D3230302027
:1008A0005300202844697361626C6564293A0046EC
:1008B000696C616D656E742073657474696E6773BD
:1008C0000020204D3230312058004D6178204163A6
:1008D00063656C65726174696F6E2028756E6974EA
:1008E000732F7332290020204D3230332058004DB1
:1008F0006178206665656472617465732028756E21
:100900006974732F73290020520020204D32303437
:10091000205000416363656C65726174696F6E207D
:1009200028756E6974732F7332292028503C7072B9
:10093000696E742D616363656C3E20523C72657410
:10094000726163742D616363656C3E20543C747204
:100950006176656C2D616363656C3E2900204A00F9
:1009600020540020530020204D32303520420041D9
:100970006476616E6365642028423C6D696E5F73C6
:1009800065676D656E745F74696D655F75733E2034
:10099000533C6D696E5F66656564726174653E2087
:1009A000543C6D696E5F74726176656C5F666565F7
:1009B00064726174653E204A3C6A756E635F64656B
:1009C000763E290020440020490020204D3330315C
:1009D000205000486F74656E6420504944002044E4
:1009E0000020490020204D333034205000426564FF
:1009F0002050494400203B0020550020204D363037
:100A000033204C0046696C616D656E74206C6F61BB
:100A1000642F756E6C6F6164003B200020496E7618
:100A2000616C696420657874727564657220005326
:100A30006C6565702E2E2E005A2050726F626520F4
:100A400050617374204265640A005A2050726F62CC
:100A50006520506173742042656400205A3A20007A
:100A600020593A200042656420583A20004D6573B1
:100A70006820706F696E74206F7574206F662072C5
:100A8000616E67650A004D302053746F70004D3100
:100A90002053746F7000436C69636B20746F205235
:100AA0006573756D652E2E2E004E6F204D6F766529
:100AB0002E00456E642066696C65206C6973740A4B
:100AC00000426567696E2066696C65206C697374A5
:100AD0000A004E6F206D656469610A005265737586
:100AE0006D696E6720534400286E6F2066696C65DF
:100AF000290043757272656E742066696C653A20D0
:100B0000005344207072696E74696E672062797454
:100B10006520004E6F74205344207072696E7469B2
:100B20006E670A002E0A0044656C6574696F6E205A
:100B30006661696C65642C2046696C653A200046E4
:100B4000696C652064656C657465643A0025697339
:100B50000025696D20256973002569682025696D68
:100B60002025697300256964202569682025696D41
:100B70002025697300256979202569642025696825
:100B80002025696D20256973005072696E74207488
:100B9000696D653A20007061757365006F6B006F59
:100BA0006666008E02890282027B026D0244454223
:100BB00055473A004D3131322053687574646F7770
:100BC0006E004D3131332053003344205072696E32
:100BD000746572204F46462E002F2F004D3134355C
:100BE00020533C696E6465783E206F7574206F6693
:100BF0002072616E67652028302D31290A003F4A36
:100C0000206F7574206F662072616E6765202830D2
:100C10002E303120746F20302E33290A00205800E6
:100C200020204D61783A2000200020204D696E3A46
:100C30002000203B200020204D3231312053005332
:100C40006F667420656E6473746F70730046523AF9
:100C50000020466C6F773A200042616279737465B8
:100C600070205A0050726F6265204F66667365741B
:100C7000205A0050726F6265204F6666736574205B
:100C80005A0064697300656E0043290A0061626C52
:100C9000656420286D696E2074656D702000436F57
:100CA0006C64206578747275646573206172652068
:100CB000004D34323120696E636F72726563742047
:100CC000706172616D657465722075736167650A24
:100CD000004D65736820706F696E74206F757420A5
:100CE0006F662072616E67650A004F666673657491
:100CF00073204170706C696564004572723A2054CB
:100D00006F6F206661722100546F6F2066617220E0
:100D100066726F6D207265666572656E63652070C0
:100D20006F696E740A00454550524F4D204F4B0A73
:100D300000290A0020746F20003F5A206F7574202C
:100D40006F662072616E6765202800290A00207492
:100D50006F20003F59206F7574206F662072616E9E
:100D6000676520282D00290A0020746F20003F5855
:100D7000206F7574206F662072616E676520282D64
:100D8000002E0A002028302D313029002076616C99
:100D90007565206F7574206F662072616E676500DF
:100DA000416476616E6365204B3D004D38340044EC
:100DB0006F6E65207072696E74696E672066696C0B
:100DC000650A004D3737004D333100496E76616C4E
:100DD00069642065787472756465720A0020204D1C
:100DE000323036205800486F6D65206F6666736537
:100DF00074004361703A00434F4E4649475F45587F
:100E0000504F5254004D4541545041434B00434FC5
:100E10004F4C45525F54454D5045524154555245F3
:100E2000004348414D4245525F54454D5045524163
:100E30005455524500424142595354455050494E31
:100E4000470041524353004D4F54494F4E5F4D4F61
:100E500044455300544845524D414C5F50524F5405
:100E6000454354494F4E00455854454E4445445F10
:100E70004D3230004C4F4E475F46494C454E414D38
:100E800045004155544F5245504F52545F53445FB3
:100E90005354415455530053445F575249544500ED
:100EA000524550454154005344434152440050522E
:100EB0004F4D50545F535550504F525400484F536C
:100EC000545F414354494F4E5F434F4D4D414E4453
:100ED0005300454D455247454E43595F504152538B
:100EE000455200434153455F4C494748545F425285
:100EF000494748544E45535300544F47474C455F6C
:100F00004C494748545300534F4654574152455F4C
:100F1000504F574552004255494C445F504552434B
:100F2000454E54004C4556454C494E475F4441544C
:100F300041005A5F50524F42450052554E4F555452
:100F4000004155544F4C4556454C005052494E5463
:100F50005F4A4F420050524F47524553530041554C
:100F6000544F5245504F52545F54454D50004155D7
:100F7000544F5245504F52545F504F5300564F4CB0
:100F8000554D455452494300454550524F4D00423E
:100F9000494E4152595F46494C455F5452414E5368
:100FA0004645520053455249414C5F584F4E5F5899
:100FB0004F4646004649524D574152455F4E414DBE
:100FC000453A4D61726C696E20322E302E392E33C7
:100FD00020284170722020322032303232203136C7
:100FE0003A30393A30352920534F555243455F4303
:100FF0004F44455F55524C3A6769746875622E6379
:101000006F6D2F4D61726C696E4669726D7761729A
:10101000652F4D61726C696E2050524F544F434F93
:101020004C5F56455253494F4E3A312E30204D4178
:101030004348494E455F545950453A334420507215
:10104000696E7465722045585452554445525F4349
:101050004F554E543A3120555549443A63656465BD
:10106000326132662D343161322D343734382D39C6
:101070006231322D63353563363266333637666614
:101080000A0047322F473320626164207061726129
:101090006D65746572730A00203B0020204D383561
:1010A000312058005A2D50726F6265204F6666736A
:1010B000657400436F6F6C696E672E2E2E00486555
:1010C0006174696E672E2E2E004531202553002055
:1010D000573A0042656420436F6F6C696E672E2E2D
:1010E0002E004265642048656174696E672E2E2E5D
:1010F0000023646566696E652044454641554C543D
:101100005F00626564004B6420004B6920004B70F7
:101110002000504944204175746F74756E652066D7
:10112000696E697368656421205075742074686500
:10113000206C617374204B702C204B6920616E64AD
:10114000204B6420636F6E7374616E7473206672DB
:101150006F6D2062656C6F7720696E746F20436FCE
:101160006E66696775726174696F6E2E680A0050E9
:101170004944204175746F74756E65206661696CB1
:101180006564212074696D656F75740A0050494467
:10119000204175746F74756E65206661696C656455
:1011A000212054656D706572617475726520746F6D
:1011B0006F20686967680A00504944204379636C6E
:1011C00065730025532025692F256900204B643A5B
:1011D0002000204B693A2000204B703A2000204329
:1011E0006C617373696320504944200A00204E6F7C
:1011F000206F76657273686F6F740A002054753AB9
:101200002000204B753A2000206D61783A200020A4
:101210006D696E3A200020643A2000206269617393
:101220003A20005761697420666F722068656174A6
:101230002075702E2E2E00504944204175746F7415
:10124000756E652073746172740A005049442041C0
:1012500075746F74756E65206661696C65642120B4
:1012600054656D706572617475726520746F6F205E
:10127000686967680A00504944204175746F747545
:101280006E6500504944204175746F74756E652019
:101290006661696C656421204261642068656174DF
:1012A00065722069640A00A10000006900A20000C4
:1012B000006300B00000000900C10000004100C24E
:1012C0000000004100C30000004100C400000041D4
:1012D00000C50000004100C60000004145C70000F5
:1012E000004300C80000004500C90000004500CDD3
:1012F0000000004900D10000004E00D50000004F62
:1013000000D60000004F00D70000007800DC00008D
:10131000005500DD0000005900E00000006100E120
:101320000000006100E20000006100E300000061D5
:1013300000E40000006100E50000006100E600003C
:10134000006165E70000006300E80000006500E957
:101350000000006500EA0000006500EB0000006589
:1013600000EC0000006900ED0000006900EE0000E4
:10137000006900EF0000006900F10000006E00F25B
:101380000000006F00F30000006F00F40000006F29
:1013900000F50000006F00F60000006F00F800008C
:1013A000006F00F90000007500FA0000007500FBF6
:1013B0000000007500FC0000007500FD00000079D1
:1013C00000FF000000790004010000410005010059
:1013D0000061000601000043000701000063000CEB
:1013E00001000043000D01000063000E01000044F5
:1013F000000F0100006400110100006400190100E9
:101400000065001A01000045001B01000065001F77
:10141000010000670030010000490031010000694F
:1014200000410100004C00420100006C004301003B
:10143000004E00440100006E00480100006E00589C
:1014400001000052005901000072005A01000053CF
:10145000005B01000073005F010000730060010089
:101460000053006101000073006501000074006F0B
:1014700001000075007C0100007A007D0100005A27
:10148000007E0100007A00920100006600E3020085
:10149000007800222000002E001E2100005078223B
:1014A000210000544D902100003C2D922100002D80
:1014B0003EB02100000300BB21000004003C2200DC
:1014C000007E00482200007E3D60220000213D6138
:1014D0002200003D00642200003C3D652200003EE9
:1014E0003DF12300000700A03000003D0021F30182
:1014F000000200C2F401000500A2000000EC00B0F0
:10150000000000DF00E4000000E100F6000000EF52
:1015100000F7000000FD00FC000000F500E3020001
:1015200000EB0087030000A5008F030000F4009883
:10153000030000F2009E030000E300A3030000F696
:1015400000A9030000F400AC030000E000AD0300BC
:1015500000E300B1030000E000B2030000E200B5C8
:10156000030000E300B8030000F200BC030000E445
:1015700000BE030000E300C0030000F700C1030049
:1015800000E600C3030000E500902100007F009208
:101590002100007E001A220000E8001E220000F355
:1015A0000088250000FF0002300000A1000C300080
:1015B00000A2000D300000A3009B300000DE009C64
:1015C000300000DF00A03000003D00A1300000A787
:1015D00000A2300000B100A3300000A800A4300039
:1015E00000B200A5300000A900A6300000B300A79B
:1015F000300000AA00A8300000B400A9300000AB01
:1016000000AA300000B500AB300000B600AC3000DE
:1016100000B6DEAD300000B700AE300000B7DEAF80
:10162000300000B800B0300000B8DEB1300000B9C2
:1016300000B2300000B9DEB3300000BA00B43000B0
:1016400000BADEB5300000BB00B6300000BBDEB72C
:10165000300000BC00B8300000BCDEB9300000BD76
:1016600000BA300000BDDEBB300000BE00BC300060
:1016700000BEDEBD300000BF00BE300000BFDEBFD8
:10168000300000C000C0300000C0DEC1300000C12A
:1016900000C2300000C1DEC3300000AF00C4300023
:1016A00000C200C5300000C2DEC6300000C300C763
:1016B000300000C3DEC8300000C400C9300000C4E0
:1016C000DECA300000C500CB300000C600CC3000C0
:1016D00000C700CD300000C800CE300000C900CFE8
:1016E000300000CA00D0300000CADED1300000CA8D
:1016F000DFD2300000CB00D3300000CBDED430008E
:1017000000CBDFD5300000CC00D6300000CCDED7D7
:10171000300000CCDFD8300000CD00D9300000CD43
:10172000DEDA300000CDDFDB300000CE00DC300040
:1017300000CEDEDD300000CEDFDE300000CF00DF87
:10174000300000D000E0300000D100E1300000D2D5
:1017500000E2300000D300E3300000AC00E43000D1
:1017600000D400E5300000AD00E6300000D500E711
:10177000300000AE00E8300000D600E9300000D7AD
:1017800000EA300000D800EB300000D900EC300057
:1017900000DA00ED300000DB00EF300000DC00F28A
:1017A000300000A600F3300000DD00F4300000B38C
:1017B000DEF7300000DCDEFA300000A6DEFB300091
:1017C00000A500FC300000B000FD300000A40007C0
:1017D0004E0000FB0086510000FC0043530000FA5D
:1017E0000064FF0000A40065FF0000A50066FF0084
:1017F00000A60067FF0000A70068FF0000A80069BE
:10180000FF0000A9006AFF0000AA006BFF0000AB08
:10181000006CFF0000AC006DFF0000AD006EFF002B
:1018200000AE006FFF0000AF0070FF0000B000715D
:10183000FF0000B10072FF0000B20073FF0000B3B0
:101840000074FF0000B40075FF0000B50076FF00D3
:1018500000B60077FF0000B70078FF0000B80079FD
:10186000FF0000B9007AFF0000BA007BFF0000BB58
:10187000007CFF0000BC007DFF0000BD007EFF007B
:1018800000BE007FFF0000BF0080FF0000C000819D
:10189000FF0000C10082FF0000C20083FF0000C300
:1018A0000084FF0000C40085FF0000C50086FF0023
:1018B00000C60087FF0000C70088FF0000C800893D
:1018C000FF0000C9008AFF0000CA008BFF0000CBA8
:1018D000008CFF0000CC008DFF0000CD008EFF00CB
:1018E00000CE008FFF0000CF0090FF0000D00091DD
:1018F000FF0000D10092FF0000D20093FF0000D350
:101900000094FF0000D40095FF0000D50096FF0072
:1019100000D60097FF0000D70098FF0000D800997C
:10192000FF0000D9009AFF0000DA009BFF0000DBF7
:10193000009CFF0000DC009DFF0000DD009EFF001A
:1019400000DE009FFF0000DF00E5FF00005C0042BA
:10195000656400456E636C6F73757265002568750C
:101960003A25303268750025303268753A253032B4
:101970006875002530326875272530326875002D6E
:101980002D2D005344002020202020202000202046
:101990002020006E6F74696669636174696F6E20E0
:1019A0000063616E63656C005072696E7420416201
:1019B0006F727465640055492041626F727465648A
:1019C000004D323520500A4D323400526573756D2A
:1019D00065005549205061757365005061757369E4
:1019E0006E672E2E2E00726573756D65004D323454
:1019F00000454550524F4D2056657273696F6E20F9
:101A00004572726F7200454550524F4D20496E64C9
:101A10006578204572726F7200454550524F4D20D7
:101A2000435243204572726F72003F0049676E6FE8
:101A3000726500526573657400496E697469616C02
:101A4000697A6520454550524F4D0050726F62656E
:101A5000205A204F6666736574004C6F6164206D78
:101A60006D00556E6C6F6164206D6D0046696C2E63
:101A7000204469612E004520696E206D6D5E330043
:101A8000416476616E6365204B00200220466163ED
:101A900074002002204D6178002002204D696E0004
:101AA0004F6666004F6E004175746F74656D70000F
:101AB0004D696E2054726176656C2056656C004DE0
:101AC000696E2056656C6F63697479004D6178208A
:101AD000452056656C004D6178205A2056656C0093
:101AE0004D617820592056656C004D617820582052
:101AF00056656C004D6178204520416363656C003C
:101B00004D6178205A20416363656C004D617820F7
:101B10005920416363656C004D6178205820416312
:101B200063656C0054726176656C20416363656C1B
:101B3000005265747261637420416363656C004197
:101B40006363656C0050726F6265205A204F666651
:101B50007365740050726F62652059204F6666731A
:101B600065740050726F62652058204F6666736519
:101B70007400452073746570732F6D6D005A205387
:101B8000746570732F6D6D00592053746570732FD9
:101B90006D6D00582053746570732F6D6D00416436
:101BA00076616E6365642053657474696E67730053
:101BB0003F0043616E63656C00496E6974004D348B
:101BC000323800496E697469616C697A65204545EF
:101BD00050524F4D0046696C616D656E74005465DE
:101BE0006D70657261747572650053746570732FE2
:101BF0006D6D0050726F6265204F66667365747319
:101C0000004A756E6374696F6E20446576004163A7
:101C100063656C65726174696F6E0056656C6F63A5
:101C20006974790053657420486F6D65204F66664E
:101C30007365747300436F6E66696775726174696A
:101C40006F6E00426564004E6F7A7A6C6500466183
:101C50006E20537065656400436F6E6669677572C8
:101C60006174696F6E00526573746F7265204465AC
:101C70006661756C7473004C6F6164205365747495
:101C8000696E67730053746F72652053657474696D
:101C90006E67730050726568656174202420436F1D
:101CA0006E660050726F6265205A204F66667365DB
:101CB0007400416476616E63656420536574746971
:101CC0006E6773004D61696E004D373032205425C8
:101CD00064004D36303020423020542564004D37AA
:101CE0003032203B2564004D3730312054256400CC
:101CF0004368616E67652046696C616D656E74004E
:101D00005072656865617420437573746F6D00501F
:101D10007265686561742024004261636B004D3612
:101D20003030423000436F6E74696E7565005075D7
:101D3000726765206D6F726500524553554D4520A1
:101D40004F5054494F4E533A005052494E54205030
:101D500041555345440020204E6F7A7A6C653A20F5
:101D60000041425300504C41005061726B696E67F4
:101D70002E2E2E0000005761697420666F72006677
:101D8000696C616D656E74206368616E676500746F
:101D90006F207374617274005761697420666F728A
:101DA0000066696C616D656E7420756E6C6F616440
:101DB00000004E6F7A7A6C652068656174696E67A1
:101DC00000506C6561736520776169742E2E2E005A
:101DD00000507265737320627574746F6E00746F57
:101DE0002068656174206E6F7A7A6C650000496EB8
:101DF000736572742066696C616D656E7400616EE6
:101E00006420707265737320627574746F6E0074F1
:101E10006F20636F6E74696E756500576169742019
:101E2000666F720066696C616D656E74206C6F61BF
:101E3000640000507265737320427574746F6E0095
:101E4000746F20726573756D65207072696E7400B1
:101E5000005761697420666F72207072696E740039
:101E6000746F20726573756D652E2E2E000057619C
:101E7000697420666F720066696C616D656E7420AE
:101E8000707572676500003F004261636B005374B8
:101E90006F70003F004E4F00594553004E6F204D6C
:101EA00065646961005072696E742066726F6D209E
:101EB0004D65646961004368616E6765204D6564C6
:101EC0006961004D3231004368616E676520466983
:101ED0006C616D656E7400436F6E666967757261E3
:101EE00074696F6E0054656D7065726174757265AA
:101EF000004D6F74696F6E00526573756D6520508B
:101F000072696E740054756E650053746F70205062
:101F100072696E74005061757365205072696E74D9
:101F200000496E666F2053637265656E003F005313
:101F300074617274205072696E740043616E6365DF
:101F40006C005072696E740043616E6E6F74206530
:101F50006E746572207375626469723A20000520A0
:101F60002E2E004D61696E002100486F74656E640D
:101F700020746F6F20636F6C64004261636B00506C
:101F8000726F63656564004D6F74696F6E004469BC
:101F90007361626C65205374657070657273004D77
:101FA0003834004D34382050726F626520546573A8
:101FB00074004732384F0A4D3438205031300046D3
:101FC00061646520486569676874004F6666004F04
:101FD0006E00426564204C6576656C696E67004CE6
:101FE0006576656C20426564004732394E004732A1
:101FF000385A004732385900486F6D652040004715
:10200000323858004175746F20486F6D6500473253
:1020100038004D61696E00507265686561742024F6
:102020002042656400507265686561742024204513
:102030006E640054656D70657261747572650065DB
:102040001D611D436F6F6C646F776E005072656821
:1020500065617420240046616E20537065656400DC
:10206000426564004E6F7A7A6C65004D61696E005E
:1020700050726F6265205A204F6666736574004126
:102080006476616E6365204B00466C6F7700466135
:102090006E20537065656400426564004E6F7A7A05
:1020A0006C65005370656564004D61696E006F700A
:1020B000656E00545249474745524544003A200056
:1020C0007A5F6D696E00795F6D696E00785F6D692A
:1020D0006E005265706F7274696E6720656E64730E
:1020E000746F70207374617475730A0020746F6F5D
:1020F000206C6F6E6720657874727573696F6E20DF
:1021000070726576656E7465640A0020636F6C6436
:1021100020657874727573696F6E2070726576656C
:102120006E7465640A00486F6D65202573257325FC
:102130007320466972737400000080C100000000C3
:10214000000000005761726E696E673A20486F6D3B
:10215000696E672042756D702044697669736F728D
:10216000203C20310A0002020400006343000048C2
:102170004300003E430000A0400000A040000000DB
:1021800040000053430000484300003E43000080ED
:10219000C1000000000000000053657474696E67A0
:1021A000732053746F72656400290A002062797489
:1021B00065733B20637263200053657474696E67B6
:1021C000732053746F7265642028004861726463E1
:1021D0006F6465642044656661756C742053657432
:1021E00074696E6773204C6F616465640A0020280F
:1021F0006D6D2900203B204C6576656C696E67200B
:102200000020204D3432302053004175746F20423D
:102210006564204C6576656C696E67002046002019
:10222000420020480020204D3134352053004D61BC
:1022300074657269616C2068656174757020706185
:1022400072616D65746572730020204D39303020E5
:102250004B004C696E65617220416476616E636506
:1022600000204A00202047323920572049002020F2
:102270004D3134392043203B20556E6974732069F9
:102280006E2043656C736975730A0054656D7065E3
:1022900072617475726520556E69747300202047F1
:1022A0003231203B004C696E65617220556E697455
:1022B0007300454550524F4D206461746173697AD3
:1022C00065206572726F722E0A00290A00206279F9
:1022D0007465733B2063726320002073746F7265B2
:1022E000642073657474696E6773207265747269B3
:1022F00065766564202800202863616C63756C61D5
:1023000074656429210A0020213D20004545505272
:102310004F4D20435243206D69736D617463682093
:102320002D202873746F7265642920002053697A08
:10233000653A2000496E6465783A200000007A43CF
:1023400000007A43333353400000C8410000A042EC
:102350000000A04200007A4500003744B80B00009E
:10236000B80B00006400000010270000204D6172CF
:102370006C696E3D563836290A00454550524F4D1E
:102380002076657273696F6E206D69736D61746319
:10239000682028454550524F4D3D0024F4D430501C
:1023A000C38E20C2A24017828B7011127A910D81C8
:1023B0006CD90AA861E108C7586607615143061E37
:1023C0004B5D05C145A7041A411104093D980371ED
:1023D0003931034036DB0265339102D43054028038
:1023E0002E1D02632CEE01752AC501B028A0011034
:1023F0002781018F2564012B244B01E0223401AC9D
:10240000211F018D200D01801FFC00841EED00970F
:102410001DDF00B81CD200E61BC600201BBC0064F8
:102420001AB200B219A8000A19A0006A189900D1BE
:1024300017910040178B00B516840031167E00B34B
:102440001579003A157300C7146F0058146A00EE2E
:102450001366008813630025135E00C7125B006CCF
:1024600012570015125400C111510070114F002174
:10247000114B00D61049008D104700461044000251
:10248000104200C00F4000800F3E00420F3C00068B
:102490000F3B00CB0E3800930E37005C0E35002743
:1024A0000E3400F30D3200C10D3100900D3000608C
:1024B0000D2E00320D2D00050D2C00D90C2B00AE79
:1024C0000C2900850C29005C0C2700350C27000E18
:1024D0000C2600E80B2400C40B2400A00B23007D75
:1024E0000B23005A0B2100390B2100180B2000F898
:1024F0000A1F00D90A1E00BB0A1E009D0A1D00808B
:102500000A1D00630A1C00470A1B002C0A1B00114D
:102510000A1A00F7091A00DD091900C4091900ABED
:10252000091900920917007B091800630917004C6C
:1025300009160036091600200916000A091500F5CB
:10254000081500E0081400CC081400B8081400A412
:10255000081400900813007D0812006B081300583F
:102560000812004608120034081100230811001256
:1025700008110001081100F0071000E0071000D05A
:10258000071000C0071000B0070F00A1071000914E
:10259000070E0083070F0074070F0065070E005732
:1025A000070E0049070E003B070D002E070E002006
:1025B000070D0013070D0006070D00F9060C00EDCE
:1025C000060D00E0060C00D4060C00C8060C00BC8A
:1025D000060C00B0060C00A4060B0099060C008D3A
:1025E000060B0082060B0077060B006C060B0061E1
:1025F000060A0057060B004C060A0042060A00387D
:10260000060A002E060A0024060A001A060A00100E
:1026100006090007060A00FD050900F4050900EB9C
:10262000050900E2050900D9050900D0050900C720
:10263000050900BE050900B5050800AD050800A59F
:102640000509009C050800940508008C0508008415
:102650000508007C050800740508006C0507006586
:102660000508005D050700560508004E05070047F0
:102670000507004005080038050700310507002A56
:10268000050700230507001C050600160507000FB7
:102690000507000805060002050700FB040600F513
:1026A000040700EE040600E8040600E2040700DB6D
:1026B000040600D5040600CF040600C9040600C3C2
:1026C000040600BD040600B7040600B1040500AC12
:1026D000040600A6040600A00405009B040600955D
:1026E000040500900406008A0405008504050080A6
:1026F0000406007A04050075040500700405006BEB
:1027000004050066040500610405005C040500572B
:10271000040500520405004D04050048040500436B
:102720000405003E0404003A0405003504050030A9
:102730000404002C04050027040400230405001EE3
:102740000404001A04040016040500110404000D1A
:10275000040400090405000404040000040400FC4F
:10276000030400F8030400F4030400F0030400EC85
:10277000030400E8030400E4030400E0030400DCB5
:10278000030400D8030400D4030400D0030400CCE5
:10279000030400C8030300C503030024F404D92084
:1027A0001BC40C5C0E9804C4095F0265077101F438
:1027B00005F900FB04B30048048700C10369005811
:1027C00003550003034500BE023A00840231005362
:1027D000022A002902250004022000E4011C00C88E
:1027E000011900AF01170098011400840113007152
:1027F0000110006101100051010E0043010D00366F
:10280000010B002B010B0020010B00150109000C2E
:1028100001090003010800FB000800F3000800EBB9
:10282000000700E4000600DE000600D8000600D223
:10283000000600CC000500C7000500C2000500BD71
:10284000000400B9000400B5000400B1000400ADAC
:10285000000400A9000400A5000300A20003009FDB
:102860000004009B00030098000300950002009301
:10287000000300900003008D0002008B000300881D
:102880000002008600020084000300810002007F35
:102890000002007D0002007B000200790002007748
:1028A0000001007600020074000200720001007155
:1028B0000002006F0002006D0001006C0002006A5F
:1028C0000001006900020067000100660001006568
:1028D000000100640002006200010061000100606C
:1028E0000001005F0002005D0001005C0001005B70
:1028F0000001005A00010059000100580001005772
:102900000001005600010055000100540001005371
:10291000000000530001005200010051000100506E
:102920000001004F0001004E0000004E0001004D6C
:102930000001004C0001004B0000004B0001004A68
:102940000001004900010048000000480001004764
:10295000000100460000004600010045000000455F
:102960000001004400010043000000430001004258
:102970000000004200010041000000410001004051
:102980000001003F0000003F0001003E0000003E4B
:102990000001003D0000003D0001003C0000003C43
:1029A0000000003C0001003B0000003B0001003A39
:1029B0000000003A00010039000000390001003831
:1029C0000000003800000038000100370000003728
:1029D000000100360000003600000036000100351E
:1029E0000000003500000035000100340000003414
:1029F0000000003400010033000000330000003309
:102A000000010032000000320000003200010031FD
:102A100000000031000000310001003000000030F3
:102A2000000000300001002F0000002F0000002FE8
:102A30000000002F0001002E0000002E0000002EDC
:102A40000001002D0000002D0000002D0000002DD1
:102A50000001002C0000002C0000002C0000002CC5
:102A60000001002B0000002B0000002B0000002BB9
:102A70000001002A0000002A0000002A0000002AAD
:102A800000010029000000290000002900000029A1
:102A90000000002900010028000000280000002894
:102AA0000000002800000028000100270000002787
:102AB000000000270000002700000027000100267A
:102AC000000000260000002600000026000000266E
:102AD0000001002500000025000000250000002561
:102AE0000000002500000025000100240000002453
:102AF0000000002400000024000000240001002346
:102B00000000002300000023000000230000002339
:102B1000000000230000002300010022000000222A
:102B2000000000220000002200000022000000221D
:102B30000001002100000021000000210000002110
:102B40000000002100000021000000210001002001
:102B500000000020000000200000002000000020F5
:102B60000000002000000020000000200001001FE5
:102B70000000001F0000001F0000001F0000001FD9
:102B80000000001F0000001F0001001E0000001ECA
:102B90000000001E0000001E000000C23100001CEA
:102BA000260000F4190000D80F0000EB080000C058
:102BB000040000750200004001000020436F756EA4
:102BC0007420583A00426564004531004500626552
:102BD00064002C2073797374656D2073746F70704A
:102BE000656421204865617465725F49443A20003C
:102BF00048656174696E67204661696C6564004868
:102C0000656174696E67206661696C656400457210
:102C1000723A204D415854454D50004D415854454D
:102C20004D50207472696767657265640045727201
:102C30003A204D494E54454D50004D494E54454D56
:102C40005020747269676765726564005448455224
:102C50004D414C2052554E415741590054686572C0
:102C60006D616C2052756E6177617900202F0020B4
:102C700042403A0020403A0020573A000009121B17
:102C8000242D363F48415A536C657E7719100B024C
:102C90003D342F265158434A757C676E323B2029BC
:102CA000161F040D7A7368615E574C452B2239302C
:102CB0000F061D14636A7178474E555C646D767F0C
:102CC0004049525B2C253E3708011A137D746F660C
:102CD00059504B42353C272E1118030A565F444D7C
:102CE000727B60691E170C053A3328214F465D54EC
:102CF0006B627970070E151C232A31384148535AEC
:102D0000656C777E09001B122D243F3658514A43CB
:102D10007C756E671019020B343D262F737A61683B
:102D2000575E454C3B3229201F160D046A637871AB
:102D30004E475C55222B3039060F141D252C373E8B
:102D40000108131A6D647F7649405B523C352E278B
:102D500018110A03747D666F5059424B171E050CFB
:102D6000333A21285F564D447B7269600E071C156B
:102D70002A233831464F545D626B70790000211070
:102D8000422063308440A550C660E77008812991D5
:102D90004AA16BB18CC1ADD1CEE1EFF1311210027D
:102DA00073325222B5529442F772D6623993188325
:102DB0007BB35AA3BDD39CC3FFF3DEE36224433449
:102DC00020040114E664C774A44485546AA54BB575
:102DD00028850995EEE5CFF5ACC58DD5533672261D
:102DE00011163006D776F6669556B4465BB77AA7C5
:102DF00019973887DFF7FEE79DD7BCC7C448E55869
:102E00008668A7784008611802282338CCC9EDD914
:102E10008EE9AFF9488969990AA92BB9F55AD44ABC
:102E2000B77A966A711A500A333A122AFDDBDCCB64
:102E3000BFFB9EEB799B588B3BBB1AABA66C877C88
:102E4000E44CC55C222C033C600C411CAEED8FFDB4
:102E5000ECCDCDDD2AAD0BBD688D499D977EB66E5C
:102E6000D55EF44E133E322E511E700E9FFFBEEF04
:102E7000DDDFFCCF1BBF3AAF599F788F8891A981C6
:102E8000CAB1EBA10CD12DC14EF16FE18010A100B0
:102E9000C230E3200450254046706760B9839893A0
:102EA000FBA3DAB33DC31CD37FE35EF3B102901200
:102EB000F322D2323542145277625672EAB5CBA56C
:102EC000A89589856EF54FE52CD50DC5E234C32450
:102ED000A01481046674476424540544DBA7FAB740
:102EE0009987B8975FE77EF71DC73CD7D326F236A0
:102EF0009106B01657667676154634564CD96DC98C
:102F00000EF92FE9C899E9898AB9ABA944586548EF
:102F100006782768C018E1088238A3287DCB5CDBDF
:102F20003FEB1EFBF98BD89BBBAB9ABB754A545A3F
:102F3000376A167AF10AD01AB32A923A2EFD0FEDAB
:102F40006CDD4DCDAABD8BADE89DC98D267C076C8F
:102F5000645C454CA23C832CE01CC10C1FEF3EFF7F
:102F60005DCF7CDF9BAFBABFD98FF89F176E367EDF
:102F7000554E745E932EB23ED10EF01E7C3C3E5EEA
:102F80002B3D3F2F5B5D3B2C2A225C0043616E6E24
:102F90006F74206F70656E207375626469722000B3
:102FA0004D6564696120496E6974204661696C00F1
:102FB00053442063617264206F6B0A006F70656E0A
:102FC000526F6F74206661696C65640A00766F6C7D
:102FD000756D652E696E6974206661696C65640A39
:102FE000004E6F20534420636172640A000A4D3220
:102FF00034004D3233202573002E0A006F70656E49
:10300000206661696C65642C2046696C653A200015
:1030100046696C652073656C65637465640A00209D
:1030200053697A653A200046696C65206F70656E59
:1030300065643A2000454E4420535542524F555442
:10304000494E450A002220706F7300222070617281
:10305000656E743A2200535542524F5554494E45BD
:103060002043414C4C207461726765743A220053CE
:10307000756263616C6C204F766572666C6F770069
:103080004578636565646564206D617820535542B9
:10309000524F5554494E452064657074683A005744
:1030A000726974696E6720746F2066696C653A2076
:1030B00000667265736800646F696E6700206669F8
:1030C0006C653A20004E6F7720002F6175746F2574
:1030D000632E670070012C0190012701B0012201CD
:1030E000C0011D01F00118011002130130020E0190
:1030F0006002090190020401C002FF000003FA000F
:103100004003F5008003F000D003EB002004E6004C
:103110007004E100E004DC004005D700C005D200E7
:103120004006CD00D006C8008007C3003008BE00AE
:10313000F008B900C009B400B00AAF00B00BAA0093
:10314000D00CA500000EA000500F9B00C0109600F0
:103150005012910000148C00C0158700B017820037
:10316000B0197D00D01B7800001E730040206E0057
:1031700090226900F024640040275F0090295A00E3
:10318000E02B5500102E500020304B00103246002E
:10319000E033410090353C00103737007038320082
:1031A000A0392D00B03A2800A03B2300603C1E004F
:1031B000103D1900903D1400103E0F00703E0A00B3
:1031C000C03E0500003F0000403FFBFF803FF6FF90
:1031D000C03FF1FF2020506C616E6E6572427566D3
:1031E00066657242797465733A200020467265659F
:1031F000204D656D6F72793A200020436F6D7069C4
:103200006C65643A204170722020322032303232B4
:103210000A00204C61737420557064617465643ACF
:1032200020323032312D31322D3235207C20417523
:1032300074686F723A20285361636861204A756E22
:103240006765726D616E202D2030332F32392F3239
:10325000322C205072757361206933290A004D6148
:10326000726C696E20322E302E392E330A002053B4
:103270006F6674776172652052657365740A002009
:103280005761746368646F672052657365740A00E0
:103290002042726F776E206F75742052657365746B
:1032A0000A002045787465726E616C205265736502
:1032B000740A00506F77657255700A0073746172FA
:1032C000740A004732385859004D31303031006FA0
:1032D0006B006572726F722077726974696E672015
:1032E000746F2066696C650A00446F6E65207361B7
:1032F00076696E672066696C652E0A004D3239006A
:10330000456E6473746F7073002553202563202508
:103310006320256320256300205A3A0020593A0093
:1033200020583A00656E6473746F70732068697416
:103330003A200000000A0B02090C0D0E08070304D6
:10334000010000000000000000000000000000007C
:10335000000000000000000000000000000000125B
:10336000111000000000000000000000000000003C
:10337000000000000000000000004D6F7665202571
:10338000736D6D004D6F766520302E316D6D004D83
:103390006F766520316D6D004D6F76652031306D33
:1033A0006D004D6F76652041786973004D6F7665CD
:1033B000204578747275646572004D6F7665205A89
:1033C000004D6F76652059004D6F7665205800508E
:1033D00072696E742066726F6D204D65646961005C
:1033E000486F6D696E67204661696C656400FFFF18
:1033F000FF50726F62696E67204661696C65640A8E
:103400000050726F62696E67204661696C65640086
:10341000205A3A200020593A200042656420583A48
:10342000200073686F7700626567696E005075727F
:1034300067654D6F72650050617573656400656EF8
:103440006400436F6E74696E7565004C6F61642033
:1034500046696C616D656E74205400496E736572C7
:10346000742066696C616D656E7420616E64207095
:103470007265737320627574746F6E0A007265737F
:10348000756D6564004469736D697373005265738B
:10349000756D696E67003344205072696E74657291
:1034A0002052656164792E005072696E74696E678E
:1034B0002E2E2E005072696E7420506175736564F3
:1034C00000220A00556E6B6E6F776E20636F6D6D14
:1034D000616E643A202200204500205A00205900E5
:1034E00020204D3932205800537465707320706568
:1034F0007220756E6974004572726F7220777269FE
:1035000074696E6720746F20454550524F4D210AF3
:1035100000DB0FC93F45BCDA3F8FB30240FCF02708
:103520004056946140FE4B9B4084A5D840E0231850
:1035300041346A5641E859974164DBD5416E2717FB
:1035400042B4B75542CE1A9742C8AED542B5885A52
:1035500043D40684BFA65FA7BF7443E0BF10B11A6F
:10356000C01C2C58C0E8F697C0B849D6C04E4E17BC
:10357000C124D355C1802497C1A0B5D5C1121A1753
:10358000C244AE55C2781797C26CACD5C267885A90
:10359000C320746F6F206C6F6E67206578747275CE
:1035A00073696F6E2070726576656E7465640A006B
:1035B00020636F6C6420657874727573696F6E2018
:1035C00070726576656E7465640A0020453A002065
:1035D0005A3A0020593A00583A006F6B0A00526577
:1035E00073656E643A20006E6F7469666963617416
:1035F000696F6E200000002200250028002B002E9D
:10360000003100340002010000050108010B010037
:10361000002100240027002A002D00300033000183
:10362000010000040107010A010505050507050859
:10363000080808020202020A0A0808040404040135
:103640000101010101010103030303030303030457
:103650000707070C0C0C0C0C0C0C0C0202020206E7
:10366000060606060606060B0B0B0B0B0B0B0B01D7
:103670000210202008081020401020408002010283
:10368000010804020101020408102040808040204B
:103690001008040201800402018040201008040286
:1036A0000108040201010204081020408001020404
:1036B0000810204080001C1F11111F000000061977
:1036C0001803130C00040E1F041C000000000E134E
:1036D00015110E00001C10181705060500040A0A33
:1036E0000A0A11110E0C12120C00000000001F1526
:1036F00011151F0000009A00980011241FBECFEF83
:10370000D1E2DEBFCDBF00E00CBF84B78093591477
:1037100014BE0FB6F894A8958091600088618093DC
:103720006000109260000FBE13E0A0E0B2E0E2E79C
:10373000F3E402E00BBF02C007900D92A639B10777
:10374000D9F724E1A6E9B3E001C01D92A935B2077B
:10375000E1F71BE1CCE7DBE100E006C021970109BE
:10376000802FFE010F94501ECB37D10780E0080751
:10377000A9F70F94450C0D94A8210C94000081E04A
:103780008093E006089582E08093E0060895CF9349
:10379000DF93EC01CB01BA010F948F1729EC38ECC1
:1037A00048EC5EE30F94471F20E030E040E05FE329
:1037B0000F946B1E0F94B41F6883DF91CF9108950F
:1037C000E091D70686E0E802F0011124EC55F94FAC
:1037D0008091BA0690E09583848308958F929F929A
:1037E000AF92BF92CF92DF92EF92FF926B017C017A
:1037F00020E030E0A9010F94891787FD6BC06DEBC5
:1038000077E386E095E3A70196010F946B1E6B01A9
:103810007C0120E030E040E251E40F94EE1720E01C
:1038200030E040E251E40F94EE174B015C0120E0E0
:1038300030E0A901C701B6010F94891720E030E0FC
:1038400040EA50E487FF04C020E030E040EA50EC5A
:10385000C501B4010F946B1E20E030E040E251E45A
:103860000F94471F0F94AF1F9B018BE237FF05C0DA
:1038700022273327261B370B8DE280937904C90159
:1038800064E670E00F943D1ECB01EAE0F0E0BF017A
:103890000F943D1E805D80937A04C901BF010F948F
:1038A0003D1E282FCB01BF010F943D1E805D8093EC
:1038B0007B048EE280937C04205D20937D0489E765
:1038C00094E0FF90EF90DF90CF90BF90AF909F90EB
:1038D0008F9008956DEB77E386E095EB94CF8F9210
:1038E0009F92AF92BF92CF92DF92EF92FF92CF93CF
:1038F0006B017C0120E030E0A9010F94891787FD5E
:10390000AAC06DEB77E386E095E3A70196010F94DB
:103910006B1E6B017C0120E030E0A9010F94891738
:1039200087FF9EC0C701B601905820E030E040E21A
:1039300051E40F94EE1720E030E040E251E40F94A0
:10394000EE1720E030E040EA50E40F946B1E20E0D8
:1039500030E040E251E40F94471F0F94AF1F6B011A
:103960007C0180E28093770460E280E1C81687E200
:10397000D806E104F1048CF0C701B60120E137E27A
:1039800040E050E00F94D51DCA01B9012AE030E0B3
:1039900040E050E00F94D51D605D6093780460E2D4
:1039A00088EEC81683E0D806E104F1048CF0C70164
:1039B000B60128EE33E040E050E00F94D51DCA0177
:1039C000B9012AE030E040E050E00F94D51D605D81
:1039D0006093790460E284E6C816D104E104F1043E
:1039E0008CF0C701B60124E630E040E050E00F94CF
:1039F000D51DCA01B9012AE030E040E050E00F9443
:103A0000D51D605D60937A048AE0882E912CA12CEC
:103A1000B12CC701B601A50194010F94D51DC62F85
:103A2000CA01B901A50194010F94D51D605D609391
:103A30007B048EE280937C04C05DC0937D0487E7A5
:103A400094E0CF91FF90EF90DF90CF90BF90AF9038
:103A50009F908F9008956DEB77E386E095EB55CFBF
:103A600020E030E040E251E4C701B60162CF8F921E
:103A70009F92AF92BF92CF92DF92EF92FF92CF933D
:103A80006B017C0120E030E0A9010F94891787FDCC
:103A900093C06DEB77E386E095E3A70196010F9461
:103AA0006B1E6B017C0120E030E040E251E40F949A
:103AB000EE1720E030E04AE754E40F94EE174B0194
:103AC0005C0120E030E0A901C701B6010F9489171D
:103AD00020E030E040EA50E487FF04C020E030E01E
:103AE00040EA50ECC501B4010F946B1E20E030E0B9
:103AF00040E251E40F94471F0F94AF1F6B017C010C
:103B0000C114D104E104F10409F45BC0F7FE59C00B
:103B1000F094E094D094C094C11CD11CE11CF11C21
:103B20008DE280937804C701B60128EE33E040E0CF
:103B300050E00F94D51D8AE0882E912CA12CB12C39
:103B4000CA01B901A50194010F94D51D605D609370
:103B500079048EE280937A04C701B60124E630E04E
:103B600040E050E00F94D51DCA01B901A5019401B0
:103B70000F94D51D605D60937B04C701B601A5015C
:103B800094010F94D51DC62FCA01B901A501940156
:103B90000F94D51D605D60937C04C05DC0937D046F
:103BA00088E794E0CF91FF90EF90DF90CF90BF90A7
:103BB000AF909F908F9008956DEB77E386E095EB43
:103BC0006CCF80E2AECFCF93DF93EC01CB01BA0193
:103BD0000F948F1720E030E040E251E40F94471F2C
:103BE000688379838A839B83DF91CF910895CF93F4
:103BF000DF93EC01CB01BA010F948F1720E030E086
:103C000040E251E40F94471F688379838A839B8342
:103C1000DF91CF9108950F948F1720E030E040E2BC
:103C200051E40F94471F5BCE0F948F1720E030E0D4
:103C300040E251E40F94471FD1CDCF93DF93EC01C5
:103C4000CB01BA010F948F172AE037ED43E25DE311
:103C50000F94471F0F94B41F688379838A839B83D3
:103C6000DF91CF910895CF93DF93EC01CB01BA019F
:103C70000F948F172AE037ED43E25DE30F94471F5F
:103C8000688379838A839B83DF91CF910895CF9353
:103C9000DF93EC01CB01BA010F948F17688379830E
:103CA0008A839B83DF91CF910895CF93DF93EC01BB
:103CB000CB01BA010F948F17688379838A839B8322
:103CC000DF91CF910895CF93DF93EC01CB01BA013F
:103CD0000F948F170F94AF1F79836883DF91CF9173
:103CE0000895CF93DF93EC01CB01BA010F948F17A6
:103CF00020E030E04AE754E40F94471F688379835B
:103D00008A839B83DF91CF9108950F948F1720E0D2
:103D100030E04AE754E40F94471FA9CECF93DF93D6
:103D2000EC01CB01BA010F948F1720E030E048EC92
:103D300052E40F94471F688379838A839B83DF91C2
:103D4000CF910895CF92DF92EF92FF9223EF34E06C
:103D500045E35FE3609138077091390780913A0736
:103D600090913B070F94EE172AE136EF45E95EE3A9
:103D70000F94471F6B017C016091D00C7091D10CA6
:103D80008091D20C9091D30C0F948D179B01AC01B4
:103D9000C701B6010F94EE170F94D8206093500717
:103DA000709351078093520790935307FF90EF90C1
:103DB000DF90CF900895FC0184910895FC018081EB
:103DC0000895009751F0FC0180E09191992331F022
:103DD000907C9038D1F38F5FF8CF80E00895AF9258
:103DE000BF92CF92DF92EF92FF920F931F93CF93E8
:103DF000DF93EC015B018A01FB01199587FD16C079
:103E0000C82ED12CF12CE12C2196F801C082D18250
:103E1000E282F382CE01DF91CF911F910F91FF904B
:103E2000EF90DF90CF90BF90AF900895982F907E45
:103E3000903CA9F48F7190E0B0E0A0E06C017D01AE
:103E400056E0CC0CDD1CEE1CFF1C5A95D1F7CE01C0
:103E50000196F50119958F73C82A2296D6CF982F0F
:103E6000907F903E11F58F7090E0B0E0A0E06C0183
:103E70007D0136E0CC0CDD1CEE1CFF1C3A95D1F721
:103E8000CE010196F50119958F73C82A46E0CC0C36
:103E9000DD1CEE1CFF1C4A95D1F7CE010296F50100
:103EA00019958F73C82A2396B0CF982F987F903F8B
:103EB00079F5877090E0B0E0A0E06C017D0186E0CC
:103EC000CC0CDD1CEE1CFF1C8A95D1F7CE010196AF
:103ED000F50119958F73C82A96E0CC0CDD1CEE1CF9
:103EE000FF1C9A95D1F7CE010296F50119958F73B3
:103EF000C82A26E0CC0CDD1CEE1CFF1C2A95D1F74D
:103F0000CE010396F50119958F73C82A24967DCFAB
:103F1000982F907C903841F4807C803869F4219609
:103F2000CE01F5011995F8CF8E7F8D3F28F02196AF
:103F3000CE01F5011995F8CFC12CD12C760165CFB2
:103F4000CF93DF93DB01F9019C919130C1F0943064
:103F500080F094509C938830D1F4808191810097B7
:103F600071F0019791838083480F591FEA011882ED
:103F700006C08C3539F49C5F9C93943041F4DF91FA
:103F8000CF9108958B3339F781E08C93F8CF20815E
:103F90003181B9016F5F7F4F71836083420F531F7F
:103FA000EA018883808191818F3591056CF7E7CF95
:103FB0000F931F9381E00091BB131091BC132091CC
:103FC000BD133091BE134091B7135091B813609157
:103FD000B9137091BA13041715072607370708F4A9
:103FE00080E01F910F91089590E080E00895209166
:103FF000EF03833021F425FD0CC024FD0CC030E01C
:10400000A90102C0559547958A95E2F7CA018170CA
:10401000089581E0089580E0089580910A0484FD68
:104020000BC080910C0487FD07C090910D04937024
:1040300081E019F480E0089581E008952FEB280FC6
:104040002A3108F047C0E22FF0E080910A049091F5
:104050000B04A0910C04B0910D0404C0B695A79573
:10406000979587952A95D2F780FD02C081700895B3
:10407000E051FC4FE081EE2341F1809134079091B3
:104080003507E80FF92FF11D808190ED980F9A30D8
:1040900030F08E3251F4818180538A3098F4F0935D
:1040A000E503E093E40381E008958D3211F08B3253
:1040B00049F4818190ED980F9A3088F38E3211F493
:1040C0008281EACFF0E0E0E0EACF1092E5031092BF
:1040D000E403E9CF80E00895B1DF882341F081E077
:1040E0002091E4033091E503232B09F480E0089547
:1040F0002F923F924F925F926F927F928F929F92F8
:10410000AF92BF92CF92DF92EF92FF920F931F93E5
:10411000CF93DF93CDB7DEB72E970FB6F894DEBFFF
:104120000FBECDBFF82EE62E042F122F282F30E021
:104130003A872987862F90E09C878B87220F331F31
:10414000A985BA852A0F3B1F3E872D87FC01E20F08
:10415000F31FEE0FFF1FEE0FFF1FE855FB4F6081AF
:104160007181828193819B01AC010F941A21882374
:1041700009F440C1802F8F0D612F6E0D282F30E084
:10418000F901EE0FFF1FE20FF31FAB85BC85AE0FE9
:10419000BF1FAA0FBB1FAA0FBB1FA855BB4FAC90D8
:1041A0001196BC9011971296CC9012971396DC90B2
:1041B000080F802F90E0AC01440F551F480F591F86
:1041C000AB85BC85A40FB51FAA0FBB1FAA0FBB1FD1
:1041D000A855BB4FEC901196FC90119712960C913C
:1041E000129713969C90862F90E0AD85BE85A80F00
:1041F000B91FAA0FBB1FAA0FBB1FA855BB4F8C909E
:1042000011967C90119712966C90129713965C9071
:10421000610F70E02D853E85260F371F220F331F5B
:10422000220F331F28553B4F3E872D87D9014C90D5
:1042300011963C90119712961C91129713962C9000
:10424000E80FF91FEE0FFF1FEE0FFF1FE855FB4FA2
:10425000B081B98321812A8332813B8383818C831E
:10426000FA01E60FF71FEE0FFF1FEE0FFF1FE855D5
:10427000FB4F90819D83A181AE83B281BF83238157
:1042800028879701402F592DB701802F992D0F9422
:104290001A21882321F0E12CF12C00E0912C9501CA
:1042A000A601B501C6010F941A21882319F0570100
:1042B000C02ED92C242D332D412F522D642D732D3A
:1042C000812F922D0F941A21882321F0412C312C1B
:1042D00010E0212C282D372D462D552D682D772DBA
:1042E000862D952D0F941A21882321F0842C732C70
:1042F000612E522C2D813E814F8158856D817E81AA
:104300008F8198850F941A21882321F01D821E82A7
:104310001F82188629813A814B815C8169817A816B
:104320008B819C810F941A21882341F03D81398330
:104330008E818A839F819B83A885AC83E985FA85DA
:10434000EE0FFF1F29853A85E20FF31F8B859C85B1
:10435000E80FF91FEE0FFF1FEE0FFF1FE855FB4F91
:10436000FA87E9879501A601B501C6010F946B1E76
:104370009701402F592D0F946A1E6B017C01282D47
:10438000372D462D552D682D772D862D952D0F9483
:104390006B1E242D332D412F522D0F946A1E9B012D
:1043A000AC01C701B6010F946B1E6B017C01298122
:1043B0003A814B815C8169817A818B819C810F94E8
:1043C0006B1E2D813E814F8158850F946A1E9B0183
:1043D000AC01C701B6010F946B1E20E030E040E451
:1043E00050E40F94471FA985BA856D937D938D93F3
:1043F0009C9313972E960FB6F894DEBF0FBECDBFD9
:10440000DF91CF911F910F91FF90EF90DF90CF90B0
:10441000BF90AF909F908F907F906F905F904F90E4
:104420003F902F9008952091A9033091AA03280F5F
:10443000391F3093AA032093A9032091E4043091FB
:10444000E504280F391F3093E5042093E4042091FC
:104450008F0430919004820F931F90939004809367
:104460008F04089580916502882341F06091720461
:104470007091730441E081E00C9459F408950F9415
:104480008F170F94AF1FCB010C943EBC0F948F1766
:1044900029EC38EC48EC5EE30F94471F20E030E055
:1044A00040E05FE30F946B1E0F94B41F862F0C94B3
:1044B000ABBCCF93DF9300D01F92CDB7DEB70F9484
:1044C000B41F0F948D1769837A838B839C83CE01ED
:1044D00001960E9411BB0F900F900F900F90DF91EB
:1044E000CF9108950F948F172AE037ED43E25DE3F3
:1044F0000F94471FDECFCF92DF92EF92FF92CF93C0
:10450000DF9300D01F92CDB7DEB76B017C0120E0B6
:1045100030E0A9010F94891787FD1BC06DEB77E38D
:1045200086E095E3A70196010F946B1E69837A8359
:104530008B839C83CE0101960E9411BB0F900F903C
:104540000F900F90DF91CF91FF90EF90DF90CF9081
:1045500008956DEB77E386E095EBE4CF0F948F172A
:104560002AE037ED43E25DE30F94471FC4CF0F9479
:104570008F17C1CFCF92DF92EF92FF926B017C0138
:1045800020E030E0A9010F94891787FD26C06DEB6C
:1045900077E386E095E3A70196010F946B1E6B010C
:1045A0007C0120E030E0A9010F94891720E030E081
:1045B00040E05FE387FF04C020E030E040E05FEBD5
:1045C000C701B6010F946B1E0F94AF1FCB01FF9074
:1045D000EF90DF90CF900C9494BB6DEB77E386E087
:1045E00095EBD9CF0F948F17C5CF0F948F1720E07D
:1045F00030E048EC52E40F94471F0C9433BE0C9407
:10460000CAA40C94CAA40C94CAA40C94CAA40C9472
:1046100053A40C9453A40C9453A40C9453A463E992
:1046200072E084E690E00E94FCD66AEB72E084E6D9
:1046300090E00C94FCD68111F2CF68EB71E084E13C
:1046400090E00C94FCD60E944DA1F5CF0E9483CD42
:10465000F2CFCF92DF92EF92FF920F931F930E94BF
:104660000EF9009114041091150420911604309154
:1046700017046B017C01C01AD10AE20AF30A970100
:10468000860137FD11C02091130420952093130457
:104690006A547C4F8F4F9F4F60931404709315049E
:1046A000809316049093170481E090911304911164
:1046B00001C080E01F910F91FF90EF90DF90CF90AD
:1046C0000895CF93DF93C0919506D09196062097D9
:1046D00029F16091910670919206809193069091D4
:1046E00094060F94AF1F6E5F7F4F24976C177D0762
:1046F000ACF47093DE046093DD040E940EF9605AFE
:1047000075418F4F9F4F6093DF047093E004809357
:10471000E1049093E204DF91CF9108951092DF04B9
:104720001092E0041092E1041092E204F4CF0E948F
:104730002FB775CF20E044E064E18EE892E10E945B
:1047400093F90E94DEEC8EE892E10C948CF9CF9202
:10475000DF92EF92FF920F931F93CF93DF9300D0DE
:1047600000D0CDB7DEB78A0146E0469F9001479F53
:10477000300D1124BC01620F731F46E050E0CE01E2
:1047800001960F94B216C980DA80EB80FC80F801A4
:1047900040815181628173818FEF9FEFC416D506EE
:1047A000E606F70640F081E090E04C155D056E05E9
:1047B0007F0508F080E026960FB6F894DEBF0FBEA6
:1047C000CDBFDF91CF911F910F91FF90EF90DF90C0
:1047D000CF9008950F931F93CF93DF93CDB7DEB79C
:1047E0002E970FB6F894DEBF0FBECDBF8A011E868E
:1047F0001D866F83788789879A872FEF2B8760388C
:1048000071058105910538F48EE892E10E942ED958
:1048100081E090E02FC09E01235F3F4FAE01495FD2
:104820005F4F69EB70E089EF94E10E948AEC97FD9D
:104830002CC08D859E8526E0289FB001299F700D94
:10484000112467507B4E46E050E0CE0101960F9454
:10485000B2166D818EE892E10E942ED901301105C9
:10486000B9F26E816623A1F28EE892E10E942ED900
:1048700082E090E02E960FB6F894DEBF0FBECDBF5B
:10488000DF91CF911F910F9108959E01235F3F4FBC
:10489000AE01495F5F4F63E670E087EA92E10E94F4
:1048A0008AEC97FD0BC08D859E8526E0289FB00180
:1048B000299F700D112469557D4EC5CF6FE3A4CF9C
:1048C0008091E4039091E503009731F04AE050E0D5
:1048D00070E060E00D94AA1560E070E0CB010895EF
:1048E0008091E4039091E503009731F04AE050E0B5
:1048F00070E060E00D947D1460E070E0CB010895FD
:10490000CF93DF93EB01E8DB882311F0E9DFEB01C4
:10491000CE01DF91CF910895E3DF97FD0AC0E0DF7C
:104920006F3F71058105910509F02CF4D9DF862FC1
:10493000089580E008958FEF0895CF93C62FCCDBC4
:10494000882311F0CF91E8CF8C2FCF9108958091DB
:10495000E4039091E503892B39F0DEDF91E08111CA
:1049600001C090E0892F089591E0FCCFCF93DF93B1
:10497000C82FD62FB1DB882319F0DF91CF91E7CF75
:104980008C2F5CDB811101C08D2FDF91CF910895B9
:10499000A7DFCB010895CF93DF93EB019DDB882345
:1049A00019F0DF91CF91F4CFCE01DF91CF9108952F
:1049B0000F931F93CF938091E4039091E5030097A9
:1049C000E9F0FC018F01C1912C2F2F7D81F0C534BE
:1049D00011F0C536B9F7F801108270E060E00F946D
:1049E0002713F801C083CF911F910F91089570E0B4
:1049F00060E0CF911F910F910D94271360E070E05C
:104A0000CB01F1CFCF92DF92EF92FF926A017B014F
:104A100063DB882329F0FF90EF90DF90CF90C8CF21
:104A2000C701B601FF90EF90DF90CF9008958F926D
:104A30009F92AF92BF92CF92DF92EF92FF920F932D
:104A40001F93CF9383EEE82E86E0F82E0FE612E058
:104A500098E1C92E9DE0D92EC0E088E58C0F3CDBA3
:104A6000882309F474C0A4DF4B015C018C2FBFDAEA
:104A7000882309F462C0F801208131814281538189
:104A8000C501B4010F946B1EF701608371838283AB
:104A90009383CF5FF4E0EF0EF11C0C5F1F4F84E0B7
:104AA000C80ED11CC330C9F685E416DB882309F48F
:104AB00059C07EDF6B017C0183E099DA882371F0B5
:104AC00020917B0230917C0240917D0250917E02C8
:104AD000C701B6010F946B1E6B017C01C092EF06FB
:104AE000D092F006E092F106F092F20640E050E03B
:104AF000BA0186E487DF20E030E0A9010F9492201C
:104B000018167CF455DF20E030E040E752E40F94C3
:104B1000471F609327027093280280932902909385
:104B20002A02CF911F910F91FF90EF90DF90CF90CD
:104B3000BF90AF909F908F900895F60120813181B2
:104B400042815381C501B4010F946A1E9DCFF801C3
:104B500080819181A281B381F70180839183A283B7
:104B6000B38397CF80917B0290917C02A0917D02CC
:104B7000B0917E028093EF069093F006A093F10629
:104B8000B093F206B3CFEF92FF920F931F93CF93A0
:104B9000DF9300D000D000D01F921F92CDB7DEB7B8
:104BA0007C0120917504422F022E000C550B809140
:104BB0007604833099F1843051F182ED9CE15F936A
:104BC0002F939F938F938E010F5F1F4F1F930F9310
:104BD0000F942217C7010E9423BE4FE350E0B80193
:104BE0008CE496E00F948E210F900F900F900F9011
:104BF0000F900F902B960FB6F894DEBF0FBECDBF6F
:104C0000DF91CF911F910F91FF90EF9008958EED5E
:104C10009CE127FDD4CF89EC9CE1D1CF87EE9CE1CC
:104C2000CECFE091D70686E0E802F0011124EC55E2
:104C3000F94F80819181A7CF80910B0790910C074C
:104C4000A2CF382F1092D6068091C1069091C2064D
:104C5000A091C306B091C406B7FF08C01092C10668
:104C60001092C2061092C3061092C4062091C1068B
:104C70002093B6061092D1068091B0061816ECF477
:104C8000082E000C990B831B9109022E000C330B8C
:104C90002817390794F097FF02C090E080E08093D6
:104CA000B606092E000CAA0BBB0B8093C10690938D
:104CB000C206A093C306B093C4068091B6066623CD
:104CC000A9F09091B706891714F48093B706209144
:104CD000B706022E000C330B2D5F3F4F482F082ED6
:104CE000000C550B241735071CF483508093B7062E
:104CF0000895E0916D04E63028F581E08E0F8093F1
:104D00006D044091C1065091C2066091C306709136
:104D1000C4062091B7069091B0068091DF0639E075
:104D2000E39FF0011124E95CFB4FA0918C12B0913C
:104D30008D12B183A083428353836483758326835A
:104D4000978380870895CF93DF93CDB7DEB78E81A9
:104D50009091D80F891768F08093D80F9E01275F34
:104D60003F4F4F81588568E270E08FEA9FE00F94D3
:104D70005117DF91CF9108950F931F930E940EF961
:104D800000912B0410912C0420912D0430912E04BD
:104D9000601B710B820B930B97FD0CC086B186FBD9
:104DA000882780F991E08927349B8260329B846058
:104DB00080932A0480912A04817090912A0491FDA5
:104DC000826090912904981749F0813009F148F0E8
:104DD000823079F0833091F0809329041F910F91F4
:104DE0000895913079F09230B9F7909128049F5F3F
:104DF0000CC0992339F09330C1F3EECF9130A9F371
:104E0000923051F790912804915090932804E4CF68
:104E1000992359F3933001F7F5CFCF92DF92EF92B8
:104E2000FF92CF93C82F0E940EF96B017C0124EAF8
:104E300030E74DE75FE3609121027091220280919B
:104E40002302909124020F94891787FD18C08AEFDE
:104E500090E0A0E0B0E08C0D9D1DAE1DBF1D8093C5
:104E6000180490931904A0931A04B0931B04C093E0
:104E70001702CF91FF90EF90DF90CF90089580E0E0
:104E800090E0DC01E8CF56DC3E98469A3C98449A84
:104E90003A98429A71DF109228040895FC0180E04C
:104EA000309749F09491992331F0907C903809F033
:104EB0008F5F3196F7CF089520E030E040E05FE368
:104EC00060910707709108078091090790910A0780
:104ED0000F946B1E0F94AF1FCB010895CF92DF92FA
:104EE000EF92FF920F931F93CF93DF9300D000D0E8
:104EF0001F921F92CDB7DEB78E010F5F1F4FD801F3
:104F000030E020E0FB01E20FF31FE491ED932F5F0F
:104F10003F4F28303105B1F798E08902B0011124E4
:104F200060648EE892E10E9484F983E790E0019743
:104F3000F1F77801E8E0EE0EF11C8BE9C82ED12CD8
:104F4000F80161918F018EE892E10E942ED9C6018D
:104F50000197F1F7E016F10699F728960FB6F89445
:104F6000DEBF0FBECDBFDF91CF911F910F91FF909C
:104F7000EF90DF90CF9008954FEF5FEF2BCCAF9283
:104F8000BF92CF92DF92EF92FF920F931F93CF9336
:104F9000DF9300D01F92CDB7DEB76C015B017A01C1
:104FA00010E000E00E151F05E0F419821A821B8242
:104FB0001C82AE014F5F5F4FB501C6010E94EF1E1C
:104FC0006C0169817A818B819C81611571058105F4
:104FD000910539F0A701401B510BFCDB080F191F8D
:104FE000E1CFC8010F900F900F900F90DF91CF91FC
:104FF0001F910F91FF90EF90DF90CF90BF90AF90F7
:105000000895AF92BF92CF92DF92EF92FF920F93EB
:105010001F93CF93DF9300D01F92CDB7DEB77C01F3
:10502000062F5A01122F862F660F990B9C012155CE
:105030003D4F690111160CF03CC0AE014F5F5F4F50
:105040006BED7EE1C7010E94EF1E7C0169817A81D0
:105050008B819C81611571058105910551F16D333D
:1050600071058105910509F458C06E3771058105F8
:10507000910509F452C06A3271058105910549F51F
:1050800007FF0FC083E599E10E3F11F08FE499E12E
:10509000412F012E000C550B6BED7EE170DF181BCC
:1050A0006AC065E470E080E090E066DF1150B9F519
:1050B00010E0812F0F900F900F900F90DF91CF9104
:1050C0001F910F91FF90EF90DF90CF90BF90AF9026
:1050D0000895643271058105910569F4A114B10444
:1050E000C9F0412F012E000C550B6BED7EE1C5017F
:1050F00046DF181B9FCF603471058105910551F47F
:105100001150F6016081062E000C770B880B990B6D
:1051100033DF90CF31DF11508DCF07FDB3CF61E08A
:1051200089819A81AB81BC81CD97A105B10509F434
:1051300060E0600F6A30A4F01150862F6AE00F948F
:105140001C1E092F682F880F770B605D7F4F072E7D
:10515000000C880B990B10DF112309F4A9CF602FE5
:10516000062E000C770B605D7F4F072E000C880B1E
:10517000990B02DF1150112309F49ACF412F012E10
:10518000000C550B6BED7EE1C701F9DE181B91CFCA
:105190004FEF5FEF6EED7EE1F2CE4FEF5FEF6BED25
:1051A0007EE1EDCE0F931F93CF93DF9300D000D01D
:1051B0001F921F92CDB7DEB7009183021091840237
:1051C00020918502309186020D831E832F833887BC
:1051D00000918702109188022091890230918A0201
:1051E00009831A832B833C8390919512691710F0E1
:1051F0006FEF690F262F30E0409196122C0F3D1F64
:10520000F901403199F4943089F46181680F606844
:105210008EE892E128960FB6F894DEBF0FBECDBFA0
:10522000DF91CF911F910F910C9484F96581EECF9E
:105230003F924F925F926F927F928F929F92AF9226
:10524000BF92CF92DF92EF92FF920F931F93CF9373
:10525000DF935C010F94D81601968501080F191F82
:10526000C8010F94D816F8016080C1E0611001C038
:10527000C0E0F801E80FF91FFF24F3948181811148
:1052800001C0F12C60E084E0DCDC7090B706D0E077
:10529000CC2ED12CFFEFCF1ADF0ACF0CD11C92E01D
:1052A000592E711094C080916502882391F0E0918D
:1052B0006A02E25069E47DE1E33038F4F0E0EE0F99
:1052C000FF1FED53FD4F6081718143E08D2F0E94E0
:1052D00059F4C2E0662069F082E0781209C080913A
:1052E0006502882329F041E0B8018D2F0E9459F40E
:1052F000C3E0E1E0CE16D10409F4CF5FC71192C03C
:1053000080916502882309F48BC042E066E57DE167
:105310008D2F0E9459F44090E1066D2F8BE042DF03
:1053200098D9382E47FE5EC020E030E040E05FE3D1
:1053300060919106709192068091930690919406E7
:105340000F946B1E0F94AF1F4B01E0909506F090E9
:10535000960662E070E080E090E00EDE88E893E080
:1053600097FC03C0C4010E943EBC12DF6FE270E0F4
:1053700080E090E001DE31103CC0FFEF21E04F16ED
:1053800019F0242D47FC20E035E02303F00111241F
:10539000E65EF84F8481882361F160E270E080E08E
:1053A00090E0EADD8AE0E816F1040CF455C060E212
:1053B00070E080E090E0E0DDE4E6EE16F1040CF44D
:1053C00056C060E270E080E090E0D6DD16C031E0CB
:1053D00073127FCF80916502882309F47ACF41E070
:1053E000B50174CF69DD4C01E0900B07F0900C071C
:1053F000B0CFC7010E9413BCCBDE61E070E080E05B
:1054000090E0BADD60E270E080E090E0B5DDFAE0C7
:10541000EF16F1042CF460E270E080E090E0ACDD87
:10542000509265027394DF5FD43009F03ACFCF5FBA
:10543000C093B006DF91CF911F910F91FF90EF9035
:10544000DF90CF90BF90AF909F908F907F906F90A4
:105450005F904F903F90089561E070E080E090E0B1
:105460008BDD60E270E080E090E086DDD4CF61E02B
:1054700070E080E090E0F9CFFC01A081B1811C9246
:10548000A281B3818C918F5F8C930280F381E02D98
:10549000608180E087CE4F925F926F927F928F9271
:1054A0009F92BF92CF92DF92EF92FF920F931F9342
:1054B000CF93DF9300D000D01F921F92CDB7DEB7FD
:1054C0007C013B016A014901FB016081FC01808193
:1054D00069DEC114D10461F1FA82E9827C826B82B7
:1054E00001111FC0AE014B5F5F4FB401C6010E94A6
:1054F000EF1E6C016D817E818F819885611571052C
:1055000081059105A9F038DDF70180818F5F8083E7
:10551000843140F3CE010196AFDFE4CFB12C860198
:1055200029C08601B12C26C0452846284728B1F756
:1055300028960FB6F894DEBF0FBECDBFDF91CF9196
:105540001F910F91FF90EF90DF90CF90BF909F90B1
:105550008F907F906F905F904F900895B39407C0A5
:10556000B1102EC001151105C9F20F5F1F4F0115B3
:105570001105A9F2AE014B5F5F4FB401C6010E9455
:10558000EF1E6C014D805E806F8078844114510461
:1055900061047104A9F0F0E24F1651046104710432
:1055A000F9F2D301C2018D97A109B1090297A105B2
:1055B000B10530F04BE2441651046104710471F6F8
:1055C000F7018081482F4B0D5527551F4531510557
:1055D0002CF0853018F0CE0101964EDF81E04114A9
:1055E00051046104710409F480E0B80EF701808170
:1055F0008B0D8083BB2009F497CFBA94AE014B5F2B
:105600005F4FB401C8010E94EF1E8C016D817E8145
:105610008F819885B1DCEECFCF92DF92EF92FF922F
:1056200069017A01BFDDC701B601FF90EF90DF90FD
:10563000CF90A2CCCF92DF92FF920F931F93CF9384
:10564000DF938C01EB01C090D806D090D906F09082
:10565000D70661E080E0A6DD23E1A6016F2DC80139
:10566000D0DC182F2097F9F06AE370E080E090E03A
:1056700083DCCE010E94E11E8F5F115061E018179C
:1056800008F462E020E230E040E050E094E1981B52
:10569000892FC2DFCE01DF91CF911F910F91FF9033
:1056A000DF90CF9075CDDF91CF911F910F91FF903B
:1056B000DF90CF900895CF92DF92EF92FF920F93F9
:1056C0001F93CF93DF93C82ED62E7A01E90120973E
:1056D00009F45EC0C901002359F1E0DB182F2EE365
:1056E00030E040E050E0C11004C020E230E040E093
:1056F00050E06D2D80E090DF22E1211B4091D80623
:105700005091D9066091D706C7017BDCF82E112392
:1057100009F442C06AE370E080E090E02DDCFF20F5
:1057200051F060E270E080E090E026DCFA94F7CF80
:105730000E94E11ED3CFCE01002349F0DF91CF912B
:105740001F910F91FF90EF90DF90CF9026CDDF91CA
:10575000CF911F910F91FF90EF90DF90CF9018CDD8
:105760002EE330E040E050E06D2D80E055DF4091C9
:10577000D8065091D90622E16091D706C701DF9182
:10578000CF911F910F91FF90EF90DF90CF9039CC88
:105790008111E6CF10E0A9CFDF91CF911F910F913A
:1057A000FF90EF90DF90CF9008950F93CF93DF930A
:1057B000EA01811101C020E2022E000C330B440BE0
:1057C000550B80E029DF4091D8065091D90622E19F
:1057D0006091D706CE0115DCC82FCC2339F060E2EA
:1057E00070E080E090E0C8DBC150F7CF602F000F81
:1057F000770B880B990BDF91CF910F91BDCB0F9356
:10580000CF93DF93CDB7DEB700E22EE349855A850B
:1058100068858F81CADFDF91CF910F910895AF9294
:10582000BF92CF92DF92EF92FF920F931F93CF938D
:10583000DF9361E081E005DAC091B70604E00C0F68
:10584000D1E085E2E82E8DE1F82E12E01C1B9EE2ED
:10585000C92E9DE1D92EBD2EBC1AAC2EA194C1112A
:105860002EC0DD23D9F08091B6061816BCF0409109
:10587000C1065091C2066091C3067091C4064F5F85
:105880005F4F6F4F7F4F4093C1065093C2066093A6
:10589000C3067093C4068F5F8093B606809165023D
:1058A000882331F041E069E37DE18A2D0E9459F4BB
:1058B000CF5F0C13D4CF83E08093B0061FC0C130FC
:1058C00041F59091B606913069F080916502882388
:1058D000C1F11F92DF92CF92BF9281E0913051F1DE
:1058E00080E028C08091B1061092B106882369F348
:1058F000C093E0068091D106882339F3DF91CF91E0
:105900001F910F91FF90EF90DF90CF90BF90AF90DD
:105910000895C23069F69091B6069230A1F0809158
:105920006502882371F01F92FF92EF921F9381E02E
:105930009230B1F68F9363DF0F900F900F900F901E
:105940000F90D0E0B5CF8091B1061092B1068823B8
:1059500031F3C093E0068091D106882301F3CECFC6
:105960000C9470ED8F929F92AF92BF92CF92DF9284
:10597000EF92FF920F931F93CF93DF9310920F0438
:1059800010920E042FE3209312041092110410922F
:10599000100410920A0410920B0410920C0410923E
:1059A0000D049C01F90190812F5F3F4F9032D1F39C
:1059B0009E34C9F4818190ED980F9A3020F08D3299
:1059C00011F08B3281F432969F012F5F3F4F80811F
:1059D00080538A3008F46BC09F012F5F3F4F808156
:1059E000803209F466C0F0933507E09334078F01E5
:1059F0000F5F1F4FC0816AE270E0C8010F946E21F3
:105A0000009731F0FC01319780818032E1F31182FF
:105A1000CD3421F0C43511F0C734E1F5F8018081AF
:105A20000F5F1F4F8032D1F380538A3098F5C093B7
:105A3000120430E020E06AE0AF014F5F5F4F629FE9
:105A4000C001639F900D11249C0120533109808176
:105A5000280F311D87FD3A95FA01808180538A30E5
:105A600058F33093110420931004DF0131968C9188
:105A70008032D9F3CD3449F52E31310539F0D8F4DF
:105A80002731310519F02C313105F9F4B0930F04A9
:105A9000A0930E04DF91CF911F910F91FF90EF9093
:105AA000DF90CF90BF90AF909F908F900895F901B5
:105AB0008BCFF90191CF2537310538F027373105E4
:105AC00028F3203A83E0380709F3D091340740E007
:105AD00050E0BA0110E000E0C12CD12C7601C39453
